{
  "transactions": [
    {
      "hash": "0x9a255633280460876d2475b95300c4fd160cac9dbe6075ccc13ef17e1e151c1d",
      "transactionType": "CREATE",
      "contractName": "SimpleNounsAuction",
      "contractAddress": "0x99bba657f2bbc93c02d617f8ba121cb8fc104acf",
      "function": null,
      "arguments": null,
      "transaction": {
        "from": "0xf39fd6e51aad88f6f4ce6ab8827279cfffb92266",
        "gas": "0x576f5",
        "value": "0x0",
        "input": "0x608060405234801561001057600080fd5b50610407806100206000396000f3fe6080604052600436106100345760003560e01c8063659dd2b41461003957806398a473df14610055578063d5563f311461007e575b600080fd5b610053600480360381019061004e91906101ac565b6100a7565b005b34801561006157600080fd5b5061007c60048036038101906100779190610237565b6100e7565b005b34801561008a57600080fd5b506100a560048036038101906100a091906101ac565b610126565b005b807f1159164c56f277e6fc99c11731bd380e0347deb969b75523398734c252706ea3333460006040516100dc939291906102c3565b60405180910390a250565b827fc9f72b276a388619c6d185d146697036241880c36654b1a3ffdad07c24038d9983836040516101199291906102fa565b60405180910390a2505050565b807fd6eddd1118d71820909c1197aa966dbc15ed6f508554252169cc3d5ccac756ca4262015180426101589190610352565b6040516101669291906103a8565b60405180910390a250565b600080fd5b6000819050919050565b61018981610176565b811461019457600080fd5b50565b6000813590506101a681610180565b92915050565b6000602082840312156101c2576101c1610171565b5b60006101d084828501610197565b91505092915050565b600073ffffffffffffffffffffffffffffffffffffffff82169050919050565b6000610204826101d9565b9050919050565b610214816101f9565b811461021f57600080fd5b50565b6000813590506102318161020b565b92915050565b6000806000606084860312156102505761024f610171565b5b600061025e86828701610197565b935050602061026f86828701610222565b925050604061028086828701610197565b9150509250925092565b610293816101f9565b82525050565b6102a281610176565b82525050565b60008115159050919050565b6102bd816102a8565b82525050565b60006060820190506102d8600083018661028a565b6102e56020830185610299565b6102f260408301846102b4565b949350505050565b600060408201905061030f600083018561028a565b61031c6020830184610299565b9392505050565b7f4e487b7100000000000000000000000000000000000000000000000000000000600052601160045260246000fd5b600061035d82610176565b915061036883610176565b9250827fffffffffffffffffffffffffffffffffffffffffffffffffffffffffffffffff0382111561039d5761039c610323565b5b828201905092915050565b60006040820190506103bd6000830185610299565b6103ca6020830184610299565b939250505056fea26469706673582212207807fe49717b5e16ed98b28549bf488fb335ec3e08c784d86d356f027365ce4b64736f6c634300080d0033",
        "nonce": "0x2a",
        "chainId": "0x7a69"
      },
      "additionalContracts": [],
      "isFixedGasLimit": false
    },
    {
      "hash": "0xe6030c7c31778b847f23b729125b66a2024849050e8d7d69a638657daee0474c",
      "transactionType": "CALL",
      "contractName": "SimpleNounsAuction",
      "contractAddress": "0x99bba657f2bbc93c02d617f8ba121cb8fc104acf",
      "function": "createAuction(uint256)",
      "arguments": [
        "721"
      ],
      "transaction": {
        "from": "0xf39fd6e51aad88f6f4ce6ab8827279cfffb92266",
        "to": "0x99bba657f2bbc93c02d617f8ba121cb8fc104acf",
        "gas": "0x8037",
        "value": "0x0",
        "input": "0xd5563f3100000000000000000000000000000000000000000000000000000000000002d1",
        "nonce": "0x2b",
        "chainId": "0x7a69"
      },
      "additionalContracts": [],
      "isFixedGasLimit": false
    },
    {
      "hash": "0x14fb6ffd459e044f9b9d29fec4e6d6e49090971a703d49a55c49b061ed66228e",
      "transactionType": "CALL",
      "contractName": "SimpleNounsAuction",
      "contractAddress": "0x99bba657f2bbc93c02d617f8ba121cb8fc104acf",
      "function": "createBid(uint256)",
      "arguments": [
        "721"
      ],
      "transaction": {
        "from": "0xf39fd6e51aad88f6f4ce6ab8827279cfffb92266",
        "to": "0x99bba657f2bbc93c02d617f8ba121cb8fc104acf",
        "gas": "0x8109",
        "value": "0xde0b6b3a7640000",
        "input": "0x659dd2b400000000000000000000000000000000000000000000000000000000000002d1",
        "nonce": "0x2c",
        "chainId": "0x7a69"
      },
      "additionalContracts": [],
      "isFixedGasLimit": false
    },
    {
      "hash": "0xfe39fc85b1971d45a9c4d4ee49377b5a34c3703560d3c6e71f80b9dd9693de5f",
      "transactionType": "CALL",
      "contractName": "SimpleNounsAuction",
      "contractAddress": "0x99bba657f2bbc93c02d617f8ba121cb8fc104acf",
      "function": "createBid(uint256)",
      "arguments": [
        "721"
      ],
      "transaction": {
        "from": "0xf39fd6e51aad88f6f4ce6ab8827279cfffb92266",
        "to": "0x99bba657f2bbc93c02d617f8ba121cb8fc104acf",
        "gas": "0x8109",
        "value": "0x22b1c8c1227a0000",
        "input": "0x659dd2b400000000000000000000000000000000000000000000000000000000000002d1",
        "nonce": "0x2d",
        "chainId": "0x7a69"
      },
      "additionalContracts": [],
      "isFixedGasLimit": false
    },
    {
      "hash": "0x0592bbf86d77060a68c93bc244d6fdc7661b1da5dc42ea7f72ccdf14fa2f17b5",
      "transactionType": "CALL",
      "contractName": "SimpleNounsAuction",
      "contractAddress": "0x99bba657f2bbc93c02d617f8ba121cb8fc104acf",
      "function": "createBid(uint256)",
      "arguments": [
        "721"
      ],
      "transaction": {
        "from": "0xf39fd6e51aad88f6f4ce6ab8827279cfffb92266",
        "to": "0x99bba657f2bbc93c02d617f8ba121cb8fc104acf",
        "gas": "0x8109",
        "value": "0x3a4965bf58a40000",
        "input": "0x659dd2b400000000000000000000000000000000000000000000000000000000000002d1",
        "nonce": "0x2e",
        "chainId": "0x7a69"
      },
      "additionalContracts": [],
      "isFixedGasLimit": false
    },
    {
      "hash": "0xee21dc370c5324896bfc9224298dee2b5a6240d76c0fef4934329f75ce7d2917",
      "transactionType": "CALL",
      "contractName": "SimpleNounsAuction",
      "contractAddress": "0x99bba657f2bbc93c02d617f8ba121cb8fc104acf",
      "function": "settleAuction(uint256,address,uint256)",
      "arguments": [
        "721",
        "0xf39Fd6e51aad88F6F4ce6aB8827279cffFb92266",
        "4200000000000000000"
      ],
      "transaction": {
        "from": "0xf39fd6e51aad88f6f4ce6ab8827279cfffb92266",
        "to": "0x99bba657f2bbc93c02d617f8ba121cb8fc104acf",
        "gas": "0x8480",
        "value": "0x0",
        "input": "0x98a473df00000000000000000000000000000000000000000000000000000000000002d1000000000000000000000000f39fd6e51aad88f6f4ce6ab8827279cfffb922660000000000000000000000000000000000000000000000003a4965bf58a40000",
        "nonce": "0x2f",
        "chainId": "0x7a69"
      },
      "additionalContracts": [],
      "isFixedGasLimit": false
    }
  ],
  "receipts": [
    {
      "status": "0x1",
      "cumulativeGasUsed": "0x43463",
      "logs": [],
      "logsBloom": "0x00000000000000000000000000000000000000000000000000000000000000000000000000000000000000000000000000000000000000000000000000000000000000000000000000000000000000000000000000000000000000000000000000000000000000000000000000000000000000000000000000000000000000000000000000000000000000000000000000000000000000000000000000000000000000000000000000000000000000000000000000000000000000000000000000000000000000000000000000000000000000000000000000000000000000000000000000000000000000000000000000000000000000000000000000000000",
      "type": "0x2",
      "transactionHash": "0x9a255633280460876d2475b95300c4fd160cac9dbe6075ccc13ef17e1e151c1d",
      "transactionIndex": "0x0",
      "blockHash": "0x211e210e732ddc4d86b79c621f89fc02439b1603c3ecefbc4a05ebea4df8c552",
      "blockNumber": "0x1c",
      "gasUsed": "0x43463",
      "effectiveGasPrice": "0x1a9c684",
      "blobGasPrice": "0x1",
      "from": "0xf39fd6e51aad88f6f4ce6ab8827279cfffb92266",
      "to": null,
      "contractAddress": "0x99bba657f2bbc93c02d617f8ba121cb8fc104acf"
    },
    {
      "status": "0x1",
      "cumulativeGasUsed": "0x5cd4",
      "logs": [
        {
          "address": "0x99bba657f2bbc93c02d617f8ba121cb8fc104acf",
          "topics": [
            "0xd6eddd1118d71820909c1197aa966dbc15ed6f508554252169cc3d5ccac756ca",
            "0x00000000000000000000000000000000000000000000000000000000000002d1"
          ],
          "data": "0x000000000000000000000000000000000000000000000000000000006839e31200000000000000000000000000000000000000000000000000000000683b3492",
          "blockHash": "0x50a42cacab462517380837216220735dca90b6b09c0acf61324746f625de1488",
          "blockNumber": "0x1d",
          "blockTimestamp": "0x6839e312",
          "transactionHash": "0xe6030c7c31778b847f23b729125b66a2024849050e8d7d69a638657daee0474c",
          "transactionIndex": "0x0",
          "logIndex": "0x0",
          "removed": false
        }
      ],
      "logsBloom": "0x00000000000000000000000000000000000000000000000000000000000000000000000000000000000000000000000000000000000000000000000000000000000000000000000000000000000000002000000000000000000000000400000000000100000000000000000000000000000000080000000000000000000000000000000000000000000000000000000000000000000000000010000000000800000000000000000000000000000000000000000000000000000000000000000000000000000000000000000000000000000000000000000000100000000000000000000000000000000000000000000000000080000001000000000000000000",
      "type": "0x2",
      "transactionHash": "0xe6030c7c31778b847f23b729125b66a2024849050e8d7d69a638657daee0474c",
      "transactionIndex": "0x0",
      "blockHash": "0x50a42cacab462517380837216220735dca90b6b09c0acf61324746f625de1488",
      "blockNumber": "0x1d",
      "gasUsed": "0x5cd4",
      "effectiveGasPrice": "0x17587ff",
      "blobGasPrice": "0x1",
      "from": "0xf39fd6e51aad88f6f4ce6ab8827279cfffb92266",
      "to": "0x99bba657f2bbc93c02d617f8ba121cb8fc104acf",
      "contractAddress": null
    },
    {
      "status": "0x1",
      "cumulativeGasUsed": "0x5d6c",
      "logs": [
        {
          "address": "0x99bba657f2bbc93c02d617f8ba121cb8fc104acf",
          "topics": [
            "0x1159164c56f277e6fc99c11731bd380e0347deb969b75523398734c252706ea3",
            "0x00000000000000000000000000000000000000000000000000000000000002d1"
          ],
          "data": "0x000000000000000000000000f39fd6e51aad88f6f4ce6ab8827279cfffb922660000000000000000000000000000000000000000000000000de0b6b3a76400000000000000000000000000000000000000000000000000000000000000000000",
          "blockHash": "0x795afc21a67870070881186135f3c7c13c7ef19a4f947071f0ef0258bca7b6d3",
          "blockNumber": "0x1e",
          "blockTimestamp": "0x6839e312",
          "transactionHash": "0x14fb6ffd459e044f9b9d29fec4e6d6e49090971a703d49a55c49b061ed66228e",
          "transactionIndex": "0x0",
          "logIndex": "0x0",
          "removed": false
        }
      ],
      "logsBloom": "0x00000000000000000000000000000000002000000000000000000000000000000000000000000000000000000000000000000000000000000000000000000000000000000000000000000000000000002000000000000000000000000400040000000100000000000000000000000000000000080000000000000000000000000000000000000000000000000000000000000000000000000000000000000000000000000000000000000000000000000000000000000000000000000000000000000000000000000000000000000000000000000000000000100000000000000000000000000000000000000000000000000080000000000008000000000000",
      "type": "0x2",
      "transactionHash": "0x14fb6ffd459e044f9b9d29fec4e6d6e49090971a703d49a55c49b061ed66228e",
      "transactionIndex": "0x0",
      "blockHash": "0x795afc21a67870070881186135f3c7c13c7ef19a4f947071f0ef0258bca7b6d3",
      "blockNumber": "0x1e",
      "gasUsed": "0x5d6c",
      "effectiveGasPrice": "0x146e9f0",
      "blobGasPrice": "0x1",
      "from": "0xf39fd6e51aad88f6f4ce6ab8827279cfffb92266",
      "to": "0x99bba657f2bbc93c02d617f8ba121cb8fc104acf",
      "contractAddress": null
    },
    {
      "status": "0x1",
      "cumulativeGasUsed": "0x5d6c",
      "logs": [
        {
          "address": "0x99bba657f2bbc93c02d617f8ba121cb8fc104acf",
          "topics": [
            "0x1159164c56f277e6fc99c11731bd380e0347deb969b75523398734c252706ea3",
            "0x00000000000000000000000000000000000000000000000000000000000002d1"
          ],
          "data": "0x000000000000000000000000f39fd6e51aad88f6f4ce6ab8827279cfffb9226600000000000000000000000000000000000000000000000022b1c8c1227a00000000000000000000000000000000000000000000000000000000000000000000",
          "blockHash": "0xdcf263cffdad314a6c5a41ade035d498d93f1e7e93bdba6c7b9e01739a25fcf4",
          "blockNumber": "0x1f",
          "blockTimestamp": "0x6839e312",
          "transactionHash": "0xfe39fc85b1971d45a9c4d4ee49377b5a34c3703560d3c6e71f80b9dd9693de5f",
          "transactionIndex": "0x0",
          "logIndex": "0x0",
          "removed": false
        }
      ],
      "logsBloom": "0x00000000000000000000000000000000002000000000000000000000000000000000000000000000000000000000000000000000000000000000000000000000000000000000000000000000000000002000000000000000000000000400040000000100000000000000000000000000000000080000000000000000000000000000000000000000000000000000000000000000000000000000000000000000000000000000000000000000000000000000000000000000000000000000000000000000000000000000000000000000000000000000000000100000000000000000000000000000000000000000000000000080000000000008000000000000",
      "type": "0x2",
      "transactionHash": "0xfe39fc85b1971d45a9c4d4ee49377b5a34c3703560d3c6e71f80b9dd9693de5f",
      "transactionIndex": "0x0",
      "blockHash": "0xdcf263cffdad314a6c5a41ade035d498d93f1e7e93bdba6c7b9e01739a25fcf4",
      "blockNumber": "0x1f",
      "gasUsed": "0x5d6c",
      "effectiveGasPrice": "0x11e1d61",
      "blobGasPrice": "0x1",
      "from": "0xf39fd6e51aad88f6f4ce6ab8827279cfffb92266",
      "to": "0x99bba657f2bbc93c02d617f8ba121cb8fc104acf",
      "contractAddress": null
    },
    {
      "status": "0x1",
      "cumulativeGasUsed": "0xbad8",
      "logs": [
        {
          "address": "0x99bba657f2bbc93c02d617f8ba121cb8fc104acf",
          "topics": [
            "0x1159164c56f277e6fc99c11731bd380e0347deb969b75523398734c252706ea3",
            "0x00000000000000000000000000000000000000000000000000000000000002d1"
          ],
          "data": "0x000000000000000000000000f39fd6e51aad88f6f4ce6ab8827279cfffb922660000000000000000000000000000000000000000000000003a4965bf58a400000000000000000000000000000000000000000000000000000000000000000000",
          "blockHash": "0xdcf263cffdad314a6c5a41ade035d498d93f1e7e93bdba6c7b9e01739a25fcf4",
          "blockNumber": "0x1f",
          "blockTimestamp": "0x6839e312",
          "transactionHash": "0x0592bbf86d77060a68c93bc244d6fdc7661b1da5dc42ea7f72ccdf14fa2f17b5",
          "transactionIndex": "0x1",
          "logIndex": "0x1",
          "removed": false
        }
      ],
      "logsBloom": "0x00000000000000000000000000000000002000000000000000000000000000000000000000000000000000000000000000000000000000000000000000000000000000000000000000000000000000002000000000000000000000000400040000000100000000000000000000000000000000080000000000000000000000000000000000000000000000000000000000000000000000000000000000000000000000000000000000000000000000000000000000000000000000000000000000000000000000000000000000000000000000000000000000100000000000000000000000000000000000000000000000000080000000000008000000000000",
      "type": "0x2",
      "transactionHash": "0x0592bbf86d77060a68c93bc244d6fdc7661b1da5dc42ea7f72ccdf14fa2f17b5",
      "transactionIndex": "0x1",
      "blockHash": "0xdcf263cffdad314a6c5a41ade035d498d93f1e7e93bdba6c7b9e01739a25fcf4",
      "blockNumber": "0x1f",
      "gasUsed": "0x5d6c",
      "effectiveGasPrice": "0x11e1d61",
      "blobGasPrice": "0x1",
      "from": "0xf39fd6e51aad88f6f4ce6ab8827279cfffb92266",
      "to": "0x99bba657f2bbc93c02d617f8ba121cb8fc104acf",
      "contractAddress": null
    },
    {
      "status": "0x1",
      "cumulativeGasUsed": "0x11ac7",
      "logs": [
        {
          "address": "0x99bba657f2bbc93c02d617f8ba121cb8fc104acf",
          "topics": [
            "0xc9f72b276a388619c6d185d146697036241880c36654b1a3ffdad07c24038d99",
            "0x00000000000000000000000000000000000000000000000000000000000002d1"
          ],
          "data": "0x000000000000000000000000f39fd6e51aad88f6f4ce6ab8827279cfffb922660000000000000000000000000000000000000000000000003a4965bf58a40000",
          "blockHash": "0xdcf263cffdad314a6c5a41ade035d498d93f1e7e93bdba6c7b9e01739a25fcf4",
          "blockNumber": "0x1f",
          "blockTimestamp": "0x6839e312",
          "transactionHash": "0xee21dc370c5324896bfc9224298dee2b5a6240d76c0fef4934329f75ce7d2917",
          "transactionIndex": "0x2",
          "logIndex": "0x2",
          "removed": false
        }
      ],
      "logsBloom": "0x00000000000000000000000000001000000000000000000000000000000000000000000000000000000000000000000000000000000000000000000000000000000000000000000000000000000000002000000000000000000000000400000000000100000000000000000000000000000000080000000000000000000000000000000000000000000000000000000000000000000000000000000000000010000000000000000000000000000000000000000000000000000000000000000000000000000000000000080000000000000000000000000000100000000000000000000000000000000000000000000000000080000000000000000000000000",
      "type": "0x2",
      "transactionHash": "0xee21dc370c5324896bfc9224298dee2b5a6240d76c0fef4934329f75ce7d2917",
      "transactionIndex": "0x2",
      "blockHash": "0xdcf263cffdad314a6c5a41ade035d498d93f1e7e93bdba6c7b9e01739a25fcf4",
      "blockNumber": "0x1f",
      "gasUsed": "0x5fef",
      "effectiveGasPrice": "0x11e1d61",
      "blobGasPrice": "0x1",
      "from": "0xf39fd6e51aad88f6f4ce6ab8827279cfffb92266",
      "to": "0x99bba657f2bbc93c02d617f8ba121cb8fc104acf",
      "contractAddress": null
    }
  ],
  "libraries": [],
  "pending": [],
  "returns": {},
  "timestamp": 1748624146,
  "chain": 31337,
  "commit": null
}