{
  "transactions": [
    {
      "hash": "0x5d71285f97933887a19e63996929ffc987b0c8fb58f5a9b9388de27548f57294",
      "transactionType": "CREATE",
      "contractName": "SimpleNounsAuction",
      "contractAddress": "0xa51c1fc2f0d1a1b8494ed1fe312d7c3a78ed91c0",
      "function": null,
      "arguments": null,
      "transaction": {
        "from": "0xf39fd6e51aad88f6f4ce6ab8827279cfffb92266",
        "gas": "0x534d3",
        "value": "0x0",
        "input": "0x6080604052348015600e575f5ffd5b506103c98061001c5f395ff3fe608060405260043610610033575f3560e01c8063659dd2b41461003757806398a473df14610053578063d5563f311461007b575b5f5ffd5b610051600480360381019061004c91906101a3565b6100a3565b005b34801561005e575f5ffd5b5061007960048036038101906100749190610228565b6100e2565b005b348015610086575f5ffd5b506100a1600480360381019061009c91906101a3565b610121565b005b807f1159164c56f277e6fc99c11731bd380e0347deb969b75523398734c252706ea333345f6040516100d7939291906102b0565b60405180910390a250565b827fc9f72b276a388619c6d185d146697036241880c36654b1a3ffdad07c24038d9983836040516101149291906102e5565b60405180910390a2505050565b807fd6eddd1118d71820909c1197aa966dbc15ed6f508554252169cc3d5ccac756ca4262015180426101539190610339565b60405161016192919061036c565b60405180910390a250565b5f5ffd5b5f819050919050565b61018281610170565b811461018c575f5ffd5b50565b5f8135905061019d81610179565b92915050565b5f602082840312156101b8576101b761016c565b5b5f6101c58482850161018f565b91505092915050565b5f73ffffffffffffffffffffffffffffffffffffffff82169050919050565b5f6101f7826101ce565b9050919050565b610207816101ed565b8114610211575f5ffd5b50565b5f81359050610222816101fe565b92915050565b5f5f5f6060848603121561023f5761023e61016c565b5b5f61024c8682870161018f565b935050602061025d86828701610214565b925050604061026e8682870161018f565b9150509250925092565b610281816101ed565b82525050565b61029081610170565b82525050565b5f8115159050919050565b6102aa81610296565b82525050565b5f6060820190506102c35f830186610278565b6102d06020830185610287565b6102dd60408301846102a1565b949350505050565b5f6040820190506102f85f830185610278565b6103056020830184610287565b9392505050565b7f4e487b71000000000000000000000000000000000000000000000000000000005f52601160045260245ffd5b5f61034382610170565b915061034e83610170565b92508282019050808211156103665761036561030c565b5b92915050565b5f60408201905061037f5f830185610287565b61038c6020830184610287565b939250505056fea26469706673582212200c1f47ec3520f5f3e9fa4cb46bdbd3b0675479e5964a38a9d6102a0ae1ac572e64736f6c634300081d0033",
        "nonce": "0xc",
        "chainId": "0x7a69"
      },
      "additionalContracts": [],
      "isFixedGasLimit": false
    },
    {
      "hash": "0x04a4f36fd9a9a38b546070efb13ffbdaa85ac4a333d7a1df297901e5e60ec709",
      "transactionType": "CALL",
      "contractName": "SimpleNounsAuction",
      "contractAddress": "0xa51c1fc2f0d1a1b8494ed1fe312d7c3a78ed91c0",
      "function": "createAuction(uint256)",
      "arguments": [
        "721"
      ],
      "transaction": {
        "from": "0xf39fd6e51aad88f6f4ce6ab8827279cfffb92266",
        "to": "0xa51c1fc2f0d1a1b8494ed1fe312d7c3a78ed91c0",
        "gas": "0x87a8",
        "value": "0x0",
        "input": "0xd5563f3100000000000000000000000000000000000000000000000000000000000002d1",
        "nonce": "0xd",
        "chainId": "0x7a69"
      },
      "additionalContracts": [],
      "isFixedGasLimit": false
    },
    {
      "hash": "0x03429758a27dc29a34bbad46d23f78bf898238ab2890b7df48d0d61b058a60a7",
      "transactionType": "CALL",
      "contractName": "SimpleNounsAuction",
      "contractAddress": "0xa51c1fc2f0d1a1b8494ed1fe312d7c3a78ed91c0",
      "function": "createBid(uint256)",
      "arguments": [
        "721"
      ],
      "transaction": {
        "from": "0xf39fd6e51aad88f6f4ce6ab8827279cfffb92266",
        "to": "0xa51c1fc2f0d1a1b8494ed1fe312d7c3a78ed91c0",
        "gas": "0x80f9",
        "value": "0xde0b6b3a7640000",
        "input": "0x659dd2b400000000000000000000000000000000000000000000000000000000000002d1",
        "nonce": "0xe",
        "chainId": "0x7a69"
      },
      "additionalContracts": [],
      "isFixedGasLimit": false
    },
    {
      "hash": "0xcc4410aa5d8e7faf02391654c1adf1fcd3f31e03a50fd0f9684ef8671459c175",
      "transactionType": "CALL",
      "contractName": "SimpleNounsAuction",
      "contractAddress": "0xa51c1fc2f0d1a1b8494ed1fe312d7c3a78ed91c0",
      "function": "createBid(uint256)",
      "arguments": [
        "721"
      ],
      "transaction": {
        "from": "0xf39fd6e51aad88f6f4ce6ab8827279cfffb92266",
        "to": "0xa51c1fc2f0d1a1b8494ed1fe312d7c3a78ed91c0",
        "gas": "0x80f9",
        "value": "0x22b1c8c1227a0000",
        "input": "0x659dd2b400000000000000000000000000000000000000000000000000000000000002d1",
        "nonce": "0xf",
        "chainId": "0x7a69"
      },
      "additionalContracts": [],
      "isFixedGasLimit": false
    },
    {
      "hash": "0xf1f7381d4b2832ba0edf82270b8d7410a5b97f6889186f079bd0bd01d04d03d3",
      "transactionType": "CALL",
      "contractName": "SimpleNounsAuction",
      "contractAddress": "0xa51c1fc2f0d1a1b8494ed1fe312d7c3a78ed91c0",
      "function": "createBid(uint256)",
      "arguments": [
        "721"
      ],
      "transaction": {
        "from": "0xf39fd6e51aad88f6f4ce6ab8827279cfffb92266",
        "to": "0xa51c1fc2f0d1a1b8494ed1fe312d7c3a78ed91c0",
        "gas": "0x80f9",
        "value": "0x3a4965bf58a40000",
        "input": "0x659dd2b400000000000000000000000000000000000000000000000000000000000002d1",
        "nonce": "0x10",
        "chainId": "0x7a69"
      },
      "additionalContracts": [],
      "isFixedGasLimit": false
    },
    {
      "hash": "0xdaf45b8f8ced36218610f411b209b83eeef1b3a63f333b49a7710addf11783cb",
      "transactionType": "CALL",
      "contractName": "SimpleNounsAuction",
      "contractAddress": "0xa51c1fc2f0d1a1b8494ed1fe312d7c3a78ed91c0",
      "function": "settleAuction(uint256,address,uint256)",
      "arguments": [
        "721",
        "0xf39Fd6e51aad88F6F4ce6aB8827279cffFb92266",
        "4200000000000000000"
      ],
      "transaction": {
        "from": "0xf39fd6e51aad88f6f4ce6ab8827279cfffb92266",
        "to": "0xa51c1fc2f0d1a1b8494ed1fe312d7c3a78ed91c0",
        "gas": "0x8469",
        "value": "0x0",
        "input": "0x98a473df00000000000000000000000000000000000000000000000000000000000002d1000000000000000000000000f39fd6e51aad88f6f4ce6ab8827279cfffb922660000000000000000000000000000000000000000000000003a4965bf58a40000",
        "nonce": "0x11",
        "chainId": "0x7a69"
      },
      "additionalContracts": [],
      "isFixedGasLimit": false
    }
  ],
  "receipts": [
    {
      "status": "0x1",
      "cumulativeGasUsed": "0x40140",
      "logs": [],
      "logsBloom": "0x00000000000000000000000000000000000000000000000000000000000000000000000000000000000000000000000000000000000000000000000000000000000000000000000000000000000000000000000000000000000000000000000000000000000000000000000000000000000000000000000000000000000000000000000000000000000000000000000000000000000000000000000000000000000000000000000000000000000000000000000000000000000000000000000000000000000000000000000000000000000000000000000000000000000000000000000000000000000000000000000000000000000000000000000000000000",
      "type": "0x2",
      "transactionHash": "0x5d71285f97933887a19e63996929ffc987b0c8fb58f5a9b9388de27548f57294",
      "transactionIndex": "0x0",
      "blockHash": "0xc8fbc183c29d499ed0d63c681448182295a4b5ecf7bab50ada23482b6b4bca57",
      "blockNumber": "0x9",
      "gasUsed": "0x40140",
      "effectiveGasPrice": "0x14a15aa7",
      "blobGasPrice": "0x1",
      "from": "0xf39fd6e51aad88f6f4ce6ab8827279cfffb92266",
      "to": null,
      "contractAddress": "0xa51c1fc2f0d1a1b8494ed1fe312d7c3a78ed91c0"
    },
    {
      "status": "0x1",
      "cumulativeGasUsed": "0x5cc2",
      "logs": [
        {
          "address": "0xa51c1fc2f0d1a1b8494ed1fe312d7c3a78ed91c0",
          "topics": [
            "0xd6eddd1118d71820909c1197aa966dbc15ed6f508554252169cc3d5ccac756ca",
            "0x00000000000000000000000000000000000000000000000000000000000002d1"
          ],
          "data": "0x0000000000000000000000000000000000000000000000000000000068322cc90000000000000000000000000000000000000000000000000000000068337e49",
          "blockHash": "0xd259e8f6e9587358d6604a2f2783a1b5559b1e098f9f1b52a88965b3c58688fd",
          "blockNumber": "0xa",
          "blockTimestamp": "0x68322cc9",
          "transactionHash": "0x04a4f36fd9a9a38b546070efb13ffbdaa85ac4a333d7a1df297901e5e60ec709",
          "transactionIndex": "0x0",
          "logIndex": "0x0",
          "removed": false
        }
      ],
      "logsBloom": "0x00000000000000000000000000000000000000000000000000000000000000000000000000000000000000000000000000000000000000000000000000000000000000000000000000000000000000002000000000000000000000000400000000000000000000000000000000000000000000000000000000000000000000000000000000000000000000000000000000000000000400000010000000000800000000000000000000000000000000000000000000000000000000000000000000000000000000000000000000000000000000000000000000000000000000000000000000000000000000000002000000000080000001000000400000000000",
      "type": "0x2",
      "transactionHash": "0x04a4f36fd9a9a38b546070efb13ffbdaa85ac4a333d7a1df297901e5e60ec709",
      "transactionIndex": "0x0",
      "blockHash": "0xd259e8f6e9587358d6604a2f2783a1b5559b1e098f9f1b52a88965b3c58688fd",
      "blockNumber": "0xa",
      "gasUsed": "0x5cc2",
      "effectiveGasPrice": "0x1218bc7a",
      "blobGasPrice": "0x1",
      "from": "0xf39fd6e51aad88f6f4ce6ab8827279cfffb92266",
      "to": "0xa51c1fc2f0d1a1b8494ed1fe312d7c3a78ed91c0",
      "contractAddress": null
    },
    {
      "status": "0x1",
      "cumulativeGasUsed": "0xba22",
      "logs": [
        {
          "address": "0xa51c1fc2f0d1a1b8494ed1fe312d7c3a78ed91c0",
          "topics": [
            "0x1159164c56f277e6fc99c11731bd380e0347deb969b75523398734c252706ea3",
            "0x00000000000000000000000000000000000000000000000000000000000002d1"
          ],
          "data": "0x000000000000000000000000f39fd6e51aad88f6f4ce6ab8827279cfffb922660000000000000000000000000000000000000000000000000de0b6b3a76400000000000000000000000000000000000000000000000000000000000000000000",
          "blockHash": "0xd259e8f6e9587358d6604a2f2783a1b5559b1e098f9f1b52a88965b3c58688fd",
          "blockNumber": "0xa",
          "blockTimestamp": "0x68322cc9",
          "transactionHash": "0x03429758a27dc29a34bbad46d23f78bf898238ab2890b7df48d0d61b058a60a7",
          "transactionIndex": "0x1",
          "logIndex": "0x1",
          "removed": false
        }
      ],
      "logsBloom": "0x00000000000000000000000000000000002000000000000000000000000000000000000000000000000000000000000000000000000000000000000000000000000000000000000000000000000000002000000000000000000000000400040000000000000000000000000000000000000000000000000000000000000000000000000000000000000000000000000000000000000400000000000000000000000000000000000000000000000000000000000000000000000000000000000000000000000000000000000000000000000000000000000000000000000000000000000000000000000000000002000000000080000000000008400000000000",
      "type": "0x2",
      "transactionHash": "0x03429758a27dc29a34bbad46d23f78bf898238ab2890b7df48d0d61b058a60a7",
      "transactionIndex": "0x1",
      "blockHash": "0xd259e8f6e9587358d6604a2f2783a1b5559b1e098f9f1b52a88965b3c58688fd",
      "blockNumber": "0xa",
      "gasUsed": "0x5d60",
      "effectiveGasPrice": "0x1218bc7a",
      "blobGasPrice": "0x1",
      "from": "0xf39fd6e51aad88f6f4ce6ab8827279cfffb92266",
      "to": "0xa51c1fc2f0d1a1b8494ed1fe312d7c3a78ed91c0",
      "contractAddress": null
    },
    {
      "status": "0x1",
      "cumulativeGasUsed": "0x11782",
      "logs": [
        {
          "address": "0xa51c1fc2f0d1a1b8494ed1fe312d7c3a78ed91c0",
          "topics": [
            "0x1159164c56f277e6fc99c11731bd380e0347deb969b75523398734c252706ea3",
            "0x00000000000000000000000000000000000000000000000000000000000002d1"
          ],
          "data": "0x000000000000000000000000f39fd6e51aad88f6f4ce6ab8827279cfffb9226600000000000000000000000000000000000000000000000022b1c8c1227a00000000000000000000000000000000000000000000000000000000000000000000",
          "blockHash": "0xd259e8f6e9587358d6604a2f2783a1b5559b1e098f9f1b52a88965b3c58688fd",
          "blockNumber": "0xa",
          "blockTimestamp": "0x68322cc9",
          "transactionHash": "0xcc4410aa5d8e7faf02391654c1adf1fcd3f31e03a50fd0f9684ef8671459c175",
          "transactionIndex": "0x2",
          "logIndex": "0x2",
          "removed": false
        }
      ],
      "logsBloom": "0x00000000000000000000000000000000002000000000000000000000000000000000000000000000000000000000000000000000000000000000000000000000000000000000000000000000000000002000000000000000000000000400040000000000000000000000000000000000000000000000000000000000000000000000000000000000000000000000000000000000000400000000000000000000000000000000000000000000000000000000000000000000000000000000000000000000000000000000000000000000000000000000000000000000000000000000000000000000000000000002000000000080000000000008400000000000",
      "type": "0x2",
      "transactionHash": "0xcc4410aa5d8e7faf02391654c1adf1fcd3f31e03a50fd0f9684ef8671459c175",
      "transactionIndex": "0x2",
      "blockHash": "0xd259e8f6e9587358d6604a2f2783a1b5559b1e098f9f1b52a88965b3c58688fd",
      "blockNumber": "0xa",
      "gasUsed": "0x5d60",
      "effectiveGasPrice": "0x1218bc7a",
      "blobGasPrice": "0x1",
      "from": "0xf39fd6e51aad88f6f4ce6ab8827279cfffb92266",
      "to": "0xa51c1fc2f0d1a1b8494ed1fe312d7c3a78ed91c0",
      "contractAddress": null
    },
    {
      "status": "0x1",
      "cumulativeGasUsed": "0x174e2",
      "logs": [
        {
          "address": "0xa51c1fc2f0d1a1b8494ed1fe312d7c3a78ed91c0",
          "topics": [
            "0x1159164c56f277e6fc99c11731bd380e0347deb969b75523398734c252706ea3",
            "0x00000000000000000000000000000000000000000000000000000000000002d1"
          ],
          "data": "0x000000000000000000000000f39fd6e51aad88f6f4ce6ab8827279cfffb922660000000000000000000000000000000000000000000000003a4965bf58a400000000000000000000000000000000000000000000000000000000000000000000",
          "blockHash": "0xd259e8f6e9587358d6604a2f2783a1b5559b1e098f9f1b52a88965b3c58688fd",
          "blockNumber": "0xa",
          "blockTimestamp": "0x68322cc9",
          "transactionHash": "0xf1f7381d4b2832ba0edf82270b8d7410a5b97f6889186f079bd0bd01d04d03d3",
          "transactionIndex": "0x3",
          "logIndex": "0x3",
          "removed": false
        }
      ],
      "logsBloom": "0x00000000000000000000000000000000002000000000000000000000000000000000000000000000000000000000000000000000000000000000000000000000000000000000000000000000000000002000000000000000000000000400040000000000000000000000000000000000000000000000000000000000000000000000000000000000000000000000000000000000000400000000000000000000000000000000000000000000000000000000000000000000000000000000000000000000000000000000000000000000000000000000000000000000000000000000000000000000000000000002000000000080000000000008400000000000",
      "type": "0x2",
      "transactionHash": "0xf1f7381d4b2832ba0edf82270b8d7410a5b97f6889186f079bd0bd01d04d03d3",
      "transactionIndex": "0x3",
      "blockHash": "0xd259e8f6e9587358d6604a2f2783a1b5559b1e098f9f1b52a88965b3c58688fd",
      "blockNumber": "0xa",
      "gasUsed": "0x5d60",
      "effectiveGasPrice": "0x1218bc7a",
      "blobGasPrice": "0x1",
      "from": "0xf39fd6e51aad88f6f4ce6ab8827279cfffb92266",
      "to": "0xa51c1fc2f0d1a1b8494ed1fe312d7c3a78ed91c0",
      "contractAddress": null
    },
    {
      "status": "0x1",
      "cumulativeGasUsed": "0x1d4c0",
      "logs": [
        {
          "address": "0xa51c1fc2f0d1a1b8494ed1fe312d7c3a78ed91c0",
          "topics": [
            "0xc9f72b276a388619c6d185d146697036241880c36654b1a3ffdad07c24038d99",
            "0x00000000000000000000000000000000000000000000000000000000000002d1"
          ],
          "data": "0x000000000000000000000000f39fd6e51aad88f6f4ce6ab8827279cfffb922660000000000000000000000000000000000000000000000003a4965bf58a40000",
          "blockHash": "0xd259e8f6e9587358d6604a2f2783a1b5559b1e098f9f1b52a88965b3c58688fd",
          "blockNumber": "0xa",
          "blockTimestamp": "0x68322cc9",
          "transactionHash": "0xdaf45b8f8ced36218610f411b209b83eeef1b3a63f333b49a7710addf11783cb",
          "transactionIndex": "0x4",
          "logIndex": "0x4",
          "removed": false
        }
      ],
      "logsBloom": "0x00000000000000000000000000001000000000000000000000000000000000000000000000000000000000000000000000000000000000000000000000000000000000000000000000000000000000002000000000000000000000000400000000000000000000000000000000000000000000000000000000000000000000000000000000000000000000000000000000000000000400000000000000000010000000000000000000000000000000000000000000000000000000000000000000000000000000000000080000000000000000000000000000000000000000000000000000000000000000000002000000000080000000000000400000000000",
      "type": "0x2",
      "transactionHash": "0xdaf45b8f8ced36218610f411b209b83eeef1b3a63f333b49a7710addf11783cb",
      "transactionIndex": "0x4",
      "blockHash": "0xd259e8f6e9587358d6604a2f2783a1b5559b1e098f9f1b52a88965b3c58688fd",
      "blockNumber": "0xa",
      "gasUsed": "0x5fde",
      "effectiveGasPrice": "0x1218bc7a",
      "blobGasPrice": "0x1",
      "from": "0xf39fd6e51aad88f6f4ce6ab8827279cfffb92266",
      "to": "0xa51c1fc2f0d1a1b8494ed1fe312d7c3a78ed91c0",
      "contractAddress": null
    }
  ],
  "libraries": [],
  "pending": [],
  "returns": {},
  "timestamp": 1748118729,
  "chain": 31337,
  "commit": "1cd55e02"
}