{
  "transactions": [
    {
      "hash": "0x64a1d10ad846bbea73d1f2f71a5346d0be7ddb20c84637c8fc7bc3eb5ae5681a",
      "transactionType": "CREATE",
      "contractName": "SimpleNounsAuction",
      "contractAddress": "0x68b1d87f95878fe05b998f19b66f4baba5de1aed",
      "function": null,
      "arguments": null,
      "transaction": {
        "from": "0xf39fd6e51aad88f6f4ce6ab8827279cfffb92266",
        "gas": "0x534d3",
        "value": "0x0",
        "input": "0x6080604052348015600e575f5ffd5b506103c98061001c5f395ff3fe608060405260043610610033575f3560e01c8063659dd2b41461003757806398a473df14610053578063d5563f311461007b575b5f5ffd5b610051600480360381019061004c91906101a3565b6100a3565b005b34801561005e575f5ffd5b5061007960048036038101906100749190610228565b6100e2565b005b348015610086575f5ffd5b506100a1600480360381019061009c91906101a3565b610121565b005b807f1159164c56f277e6fc99c11731bd380e0347deb969b75523398734c252706ea333345f6040516100d7939291906102b0565b60405180910390a250565b827fc9f72b276a388619c6d185d146697036241880c36654b1a3ffdad07c24038d9983836040516101149291906102e5565b60405180910390a2505050565b807fd6eddd1118d71820909c1197aa966dbc15ed6f508554252169cc3d5ccac756ca4262015180426101539190610339565b60405161016192919061036c565b60405180910390a250565b5f5ffd5b5f819050919050565b61018281610170565b811461018c575f5ffd5b50565b5f8135905061019d81610179565b92915050565b5f602082840312156101b8576101b761016c565b5b5f6101c58482850161018f565b91505092915050565b5f73ffffffffffffffffffffffffffffffffffffffff82169050919050565b5f6101f7826101ce565b9050919050565b610207816101ed565b8114610211575f5ffd5b50565b5f81359050610222816101fe565b92915050565b5f5f5f6060848603121561023f5761023e61016c565b5b5f61024c8682870161018f565b935050602061025d86828701610214565b925050604061026e8682870161018f565b9150509250925092565b610281816101ed565b82525050565b61029081610170565b82525050565b5f8115159050919050565b6102aa81610296565b82525050565b5f6060820190506102c35f830186610278565b6102d06020830185610287565b6102dd60408301846102a1565b949350505050565b5f6040820190506102f85f830185610278565b6103056020830184610287565b9392505050565b7f4e487b71000000000000000000000000000000000000000000000000000000005f52601160045260245ffd5b5f61034382610170565b915061034e83610170565b92508282019050808211156103665761036561030c565b5b92915050565b5f60408201905061037f5f830185610287565b61038c6020830184610287565b939250505056fea26469706673582212200c1f47ec3520f5f3e9fa4cb46bdbd3b0675479e5964a38a9d6102a0ae1ac572e64736f6c634300081d0033",
        "nonce": "0x12",
        "chainId": "0x7a69"
      },
      "additionalContracts": [],
      "isFixedGasLimit": false
    },
    {
      "hash": "0xc05d91283c76e15c6a3f7fc1bff765a7b23f97b6f33d908cfdf4a288c6e45fdc",
      "transactionType": "CALL",
      "contractName": "SimpleNounsAuction",
      "contractAddress": "0x68b1d87f95878fe05b998f19b66f4baba5de1aed",
      "function": "createAuction(uint256)",
      "arguments": [
        "721"
      ],
      "transaction": {
        "from": "0xf39fd6e51aad88f6f4ce6ab8827279cfffb92266",
        "to": "0x68b1d87f95878fe05b998f19b66f4baba5de1aed",
        "gas": "0x87a8",
        "value": "0x0",
        "input": "0xd5563f3100000000000000000000000000000000000000000000000000000000000002d1",
        "nonce": "0x13",
        "chainId": "0x7a69"
      },
      "additionalContracts": [],
      "isFixedGasLimit": false
    },
    {
      "hash": "0x6f848ac640039af146190ce218558b2e6c639390232819e4179f6135bdbac95f",
      "transactionType": "CALL",
      "contractName": "SimpleNounsAuction",
      "contractAddress": "0x68b1d87f95878fe05b998f19b66f4baba5de1aed",
      "function": "createBid(uint256)",
      "arguments": [
        "721"
      ],
      "transaction": {
        "from": "0xf39fd6e51aad88f6f4ce6ab8827279cfffb92266",
        "to": "0x68b1d87f95878fe05b998f19b66f4baba5de1aed",
        "gas": "0x80f9",
        "value": "0xde0b6b3a7640000",
        "input": "0x659dd2b400000000000000000000000000000000000000000000000000000000000002d1",
        "nonce": "0x14",
        "chainId": "0x7a69"
      },
      "additionalContracts": [],
      "isFixedGasLimit": false
    },
    {
      "hash": "0xcc4246604502f7a4c5808f4715b8c88eeb7542b804c23ae3b72d9d683190d43a",
      "transactionType": "CALL",
      "contractName": "SimpleNounsAuction",
      "contractAddress": "0x68b1d87f95878fe05b998f19b66f4baba5de1aed",
      "function": "createBid(uint256)",
      "arguments": [
        "721"
      ],
      "transaction": {
        "from": "0xf39fd6e51aad88f6f4ce6ab8827279cfffb92266",
        "to": "0x68b1d87f95878fe05b998f19b66f4baba5de1aed",
        "gas": "0x80f9",
        "value": "0x22b1c8c1227a0000",
        "input": "0x659dd2b400000000000000000000000000000000000000000000000000000000000002d1",
        "nonce": "0x15",
        "chainId": "0x7a69"
      },
      "additionalContracts": [],
      "isFixedGasLimit": false
    },
    {
      "hash": "0x57d07cc67cbf09a556bd900f65c8dd0ad5fb7de30a07f394a963144576fa608e",
      "transactionType": "CALL",
      "contractName": "SimpleNounsAuction",
      "contractAddress": "0x68b1d87f95878fe05b998f19b66f4baba5de1aed",
      "function": "createBid(uint256)",
      "arguments": [
        "721"
      ],
      "transaction": {
        "from": "0xf39fd6e51aad88f6f4ce6ab8827279cfffb92266",
        "to": "0x68b1d87f95878fe05b998f19b66f4baba5de1aed",
        "gas": "0x80f9",
        "value": "0x3a4965bf58a40000",
        "input": "0x659dd2b400000000000000000000000000000000000000000000000000000000000002d1",
        "nonce": "0x16",
        "chainId": "0x7a69"
      },
      "additionalContracts": [],
      "isFixedGasLimit": false
    },
    {
      "hash": "0xd2edb62688a668e6b9ca636f0d1dcd969a4dc05e23553a3020726c94611254a8",
      "transactionType": "CALL",
      "contractName": "SimpleNounsAuction",
      "contractAddress": "0x68b1d87f95878fe05b998f19b66f4baba5de1aed",
      "function": "settleAuction(uint256,address,uint256)",
      "arguments": [
        "721",
        "0xf39Fd6e51aad88F6F4ce6aB8827279cffFb92266",
        "4200000000000000000"
      ],
      "transaction": {
        "from": "0xf39fd6e51aad88f6f4ce6ab8827279cfffb92266",
        "to": "0x68b1d87f95878fe05b998f19b66f4baba5de1aed",
        "gas": "0x8469",
        "value": "0x0",
        "input": "0x98a473df00000000000000000000000000000000000000000000000000000000000002d1000000000000000000000000f39fd6e51aad88f6f4ce6ab8827279cfffb922660000000000000000000000000000000000000000000000003a4965bf58a40000",
        "nonce": "0x17",
        "chainId": "0x7a69"
      },
      "additionalContracts": [],
      "isFixedGasLimit": false
    }
  ],
  "receipts": [
    {
      "status": "0x1",
      "cumulativeGasUsed": "0x40140",
      "logs": [],
      "logsBloom": "0x00000000000000000000000000000000000000000000000000000000000000000000000000000000000000000000000000000000000000000000000000000000000000000000000000000000000000000000000000000000000000000000000000000000000000000000000000000000000000000000000000000000000000000000000000000000000000000000000000000000000000000000000000000000000000000000000000000000000000000000000000000000000000000000000000000000000000000000000000000000000000000000000000000000000000000000000000000000000000000000000000000000000000000000000000000000",
      "type": "0x2",
      "transactionHash": "0x64a1d10ad846bbea73d1f2f71a5346d0be7ddb20c84637c8fc7bc3eb5ae5681a",
      "transactionIndex": "0x0",
      "blockHash": "0x1bddade9586cffd574a7b5da4b21f0f3a3365426e3f6941deee455b509623904",
      "blockNumber": "0xb",
      "gasUsed": "0x40140",
      "effectiveGasPrice": "0xfda46e6",
      "blobGasPrice": "0x1",
      "from": "0xf39fd6e51aad88f6f4ce6ab8827279cfffb92266",
      "to": null,
      "contractAddress": "0x68b1d87f95878fe05b998f19b66f4baba5de1aed"
    },
    {
      "status": "0x1",
      "cumulativeGasUsed": "0x5cc2",
      "logs": [
        {
          "address": "0x68b1d87f95878fe05b998f19b66f4baba5de1aed",
          "topics": [
            "0xd6eddd1118d71820909c1197aa966dbc15ed6f508554252169cc3d5ccac756ca",
            "0x00000000000000000000000000000000000000000000000000000000000002d1"
          ],
          "data": "0x0000000000000000000000000000000000000000000000000000000068322cd90000000000000000000000000000000000000000000000000000000068337e59",
          "blockHash": "0x36c360110cd24a90db1013fd56823bbc5e03e55c386aa369b01f949a4d5b65f6",
          "blockNumber": "0xc",
          "blockTimestamp": "0x68322cd9",
          "transactionHash": "0xc05d91283c76e15c6a3f7fc1bff765a7b23f97b6f33d908cfdf4a288c6e45fdc",
          "transactionIndex": "0x0",
          "logIndex": "0x0",
          "removed": false
        }
      ],
      "logsBloom": "0x00000000000000000000000000000000000000000000000000000000000000000000000000000000000000020000000000000000000000000000000000000000000000000000000000000000000000002000000000000000000000000400000000000000000000000000000000000000000000000000000000000000000000000000000000000000000000000000000000000000000000000010000000000800000000000000000008000000000000000000000000000000000000000000000000000000000000000000000000000000000000000000000000000000000000000000000000000000000000000000000000000080000001000100000000000000",
      "type": "0x2",
      "transactionHash": "0xc05d91283c76e15c6a3f7fc1bff765a7b23f97b6f33d908cfdf4a288c6e45fdc",
      "transactionIndex": "0x0",
      "blockHash": "0x36c360110cd24a90db1013fd56823bbc5e03e55c386aa369b01f949a4d5b65f6",
      "blockNumber": "0xc",
      "gasUsed": "0x5cc2",
      "effectiveGasPrice": "0xde7de5d",
      "blobGasPrice": "0x1",
      "from": "0xf39fd6e51aad88f6f4ce6ab8827279cfffb92266",
      "to": "0x68b1d87f95878fe05b998f19b66f4baba5de1aed",
      "contractAddress": null
    },
    {
      "status": "0x1",
      "cumulativeGasUsed": "0xba22",
      "logs": [
        {
          "address": "0x68b1d87f95878fe05b998f19b66f4baba5de1aed",
          "topics": [
            "0x1159164c56f277e6fc99c11731bd380e0347deb969b75523398734c252706ea3",
            "0x00000000000000000000000000000000000000000000000000000000000002d1"
          ],
          "data": "0x000000000000000000000000f39fd6e51aad88f6f4ce6ab8827279cfffb922660000000000000000000000000000000000000000000000000de0b6b3a76400000000000000000000000000000000000000000000000000000000000000000000",
          "blockHash": "0x36c360110cd24a90db1013fd56823bbc5e03e55c386aa369b01f949a4d5b65f6",
          "blockNumber": "0xc",
          "blockTimestamp": "0x68322cd9",
          "transactionHash": "0x6f848ac640039af146190ce218558b2e6c639390232819e4179f6135bdbac95f",
          "transactionIndex": "0x1",
          "logIndex": "0x1",
          "removed": false
        }
      ],
      "logsBloom": "0x00000000000000000000000000000000002000000000000000000000000000000000000000000000000000020000000000000000000000000000000000000000000000000000000000000000000000002000000000000000000000000400040000000000000000000000000000000000000000000000000000000000000000000000000000000000000000000000000000000000000000000000000000000000000000000000000008000000000000000000000000000000000000000000000000000000000000000000000000000000000000000000000000000000000000000000000000000000000000000000000000000080000000000108000000000000",
      "type": "0x2",
      "transactionHash": "0x6f848ac640039af146190ce218558b2e6c639390232819e4179f6135bdbac95f",
      "transactionIndex": "0x1",
      "blockHash": "0x36c360110cd24a90db1013fd56823bbc5e03e55c386aa369b01f949a4d5b65f6",
      "blockNumber": "0xc",
      "gasUsed": "0x5d60",
      "effectiveGasPrice": "0xde7de5d",
      "blobGasPrice": "0x1",
      "from": "0xf39fd6e51aad88f6f4ce6ab8827279cfffb92266",
      "to": "0x68b1d87f95878fe05b998f19b66f4baba5de1aed",
      "contractAddress": null
    },
    {
      "status": "0x1",
      "cumulativeGasUsed": "0x11782",
      "logs": [
        {
          "address": "0x68b1d87f95878fe05b998f19b66f4baba5de1aed",
          "topics": [
            "0x1159164c56f277e6fc99c11731bd380e0347deb969b75523398734c252706ea3",
            "0x00000000000000000000000000000000000000000000000000000000000002d1"
          ],
          "data": "0x000000000000000000000000f39fd6e51aad88f6f4ce6ab8827279cfffb9226600000000000000000000000000000000000000000000000022b1c8c1227a00000000000000000000000000000000000000000000000000000000000000000000",
          "blockHash": "0x36c360110cd24a90db1013fd56823bbc5e03e55c386aa369b01f949a4d5b65f6",
          "blockNumber": "0xc",
          "blockTimestamp": "0x68322cd9",
          "transactionHash": "0xcc4246604502f7a4c5808f4715b8c88eeb7542b804c23ae3b72d9d683190d43a",
          "transactionIndex": "0x2",
          "logIndex": "0x2",
          "removed": false
        }
      ],
      "logsBloom": "0x00000000000000000000000000000000002000000000000000000000000000000000000000000000000000020000000000000000000000000000000000000000000000000000000000000000000000002000000000000000000000000400040000000000000000000000000000000000000000000000000000000000000000000000000000000000000000000000000000000000000000000000000000000000000000000000000008000000000000000000000000000000000000000000000000000000000000000000000000000000000000000000000000000000000000000000000000000000000000000000000000000080000000000108000000000000",
      "type": "0x2",
      "transactionHash": "0xcc4246604502f7a4c5808f4715b8c88eeb7542b804c23ae3b72d9d683190d43a",
      "transactionIndex": "0x2",
      "blockHash": "0x36c360110cd24a90db1013fd56823bbc5e03e55c386aa369b01f949a4d5b65f6",
      "blockNumber": "0xc",
      "gasUsed": "0x5d60",
      "effectiveGasPrice": "0xde7de5d",
      "blobGasPrice": "0x1",
      "from": "0xf39fd6e51aad88f6f4ce6ab8827279cfffb92266",
      "to": "0x68b1d87f95878fe05b998f19b66f4baba5de1aed",
      "contractAddress": null
    },
    {
      "status": "0x1",
      "cumulativeGasUsed": "0x174e2",
      "logs": [
        {
          "address": "0x68b1d87f95878fe05b998f19b66f4baba5de1aed",
          "topics": [
            "0x1159164c56f277e6fc99c11731bd380e0347deb969b75523398734c252706ea3",
            "0x00000000000000000000000000000000000000000000000000000000000002d1"
          ],
          "data": "0x000000000000000000000000f39fd6e51aad88f6f4ce6ab8827279cfffb922660000000000000000000000000000000000000000000000003a4965bf58a400000000000000000000000000000000000000000000000000000000000000000000",
          "blockHash": "0x36c360110cd24a90db1013fd56823bbc5e03e55c386aa369b01f949a4d5b65f6",
          "blockNumber": "0xc",
          "blockTimestamp": "0x68322cd9",
          "transactionHash": "0x57d07cc67cbf09a556bd900f65c8dd0ad5fb7de30a07f394a963144576fa608e",
          "transactionIndex": "0x3",
          "logIndex": "0x3",
          "removed": false
        }
      ],
      "logsBloom": "0x00000000000000000000000000000000002000000000000000000000000000000000000000000000000000020000000000000000000000000000000000000000000000000000000000000000000000002000000000000000000000000400040000000000000000000000000000000000000000000000000000000000000000000000000000000000000000000000000000000000000000000000000000000000000000000000000008000000000000000000000000000000000000000000000000000000000000000000000000000000000000000000000000000000000000000000000000000000000000000000000000000080000000000108000000000000",
      "type": "0x2",
      "transactionHash": "0x57d07cc67cbf09a556bd900f65c8dd0ad5fb7de30a07f394a963144576fa608e",
      "transactionIndex": "0x3",
      "blockHash": "0x36c360110cd24a90db1013fd56823bbc5e03e55c386aa369b01f949a4d5b65f6",
      "blockNumber": "0xc",
      "gasUsed": "0x5d60",
      "effectiveGasPrice": "0xde7de5d",
      "blobGasPrice": "0x1",
      "from": "0xf39fd6e51aad88f6f4ce6ab8827279cfffb92266",
      "to": "0x68b1d87f95878fe05b998f19b66f4baba5de1aed",
      "contractAddress": null
    },
    {
      "status": "0x1",
      "cumulativeGasUsed": "0x1d4c0",
      "logs": [
        {
          "address": "0x68b1d87f95878fe05b998f19b66f4baba5de1aed",
          "topics": [
            "0xc9f72b276a388619c6d185d146697036241880c36654b1a3ffdad07c24038d99",
            "0x00000000000000000000000000000000000000000000000000000000000002d1"
          ],
          "data": "0x000000000000000000000000f39fd6e51aad88f6f4ce6ab8827279cfffb922660000000000000000000000000000000000000000000000003a4965bf58a40000",
          "blockHash": "0x36c360110cd24a90db1013fd56823bbc5e03e55c386aa369b01f949a4d5b65f6",
          "blockNumber": "0xc",
          "blockTimestamp": "0x68322cd9",
          "transactionHash": "0xd2edb62688a668e6b9ca636f0d1dcd969a4dc05e23553a3020726c94611254a8",
          "transactionIndex": "0x4",
          "logIndex": "0x4",
          "removed": false
        }
      ],
      "logsBloom": "0x00000000000000000000000000001000000000000000000000000000000000000000000000000000000000020000000000000000000000000000000000000000000000000000000000000000000000002000000000000000000000000400000000000000000000000000000000000000000000000000000000000000000000000000000000000000000000000000000000000000000000000000000000000010000000000000000008000000000000000000000000000000000000000000000000000000000000000000080000000000000000000000000000000000000000000000000000000000000000000000000000000080000000000100000000000000",
      "type": "0x2",
      "transactionHash": "0xd2edb62688a668e6b9ca636f0d1dcd969a4dc05e23553a3020726c94611254a8",
      "transactionIndex": "0x4",
      "blockHash": "0x36c360110cd24a90db1013fd56823bbc5e03e55c386aa369b01f949a4d5b65f6",
      "blockNumber": "0xc",
      "gasUsed": "0x5fde",
      "effectiveGasPrice": "0xde7de5d",
      "blobGasPrice": "0x1",
      "from": "0xf39fd6e51aad88f6f4ce6ab8827279cfffb92266",
      "to": "0x68b1d87f95878fe05b998f19b66f4baba5de1aed",
      "contractAddress": null
    }
  ],
  "libraries": [],
  "pending": [],
  "returns": {},
  "timestamp": 1748118745,
  "chain": 31337,
  "commit": "1cd55e02"
}