{
  "transactions": [
    {
      "hash": "0xa92682f5e880d5989f4c3277bcef83400dd3570e2880e75c6e3e9c951126f4f6",
      "transactionType": "CREATE",
      "contractName": "SimpleNounsAuction",
      "contractAddress": "0x851356ae760d987e095750cceb3bc6014560891c",
      "function": null,
      "arguments": null,
      "transaction": {
        "from": "0xf39fd6e51aad88f6f4ce6ab8827279cfffb92266",
        "gas": "0x576f5",
        "value": "0x0",
        "input": "0x608060405234801561001057600080fd5b50610407806100206000396000f3fe6080604052600436106100345760003560e01c8063659dd2b41461003957806398a473df14610055578063d5563f311461007e575b600080fd5b610053600480360381019061004e91906101ac565b6100a7565b005b34801561006157600080fd5b5061007c60048036038101906100779190610237565b6100e7565b005b34801561008a57600080fd5b506100a560048036038101906100a091906101ac565b610126565b005b807f1159164c56f277e6fc99c11731bd380e0347deb969b75523398734c252706ea3333460006040516100dc939291906102c3565b60405180910390a250565b827fc9f72b276a388619c6d185d146697036241880c36654b1a3ffdad07c24038d9983836040516101199291906102fa565b60405180910390a2505050565b807fd6eddd1118d71820909c1197aa966dbc15ed6f508554252169cc3d5ccac756ca4262015180426101589190610352565b6040516101669291906103a8565b60405180910390a250565b600080fd5b6000819050919050565b61018981610176565b811461019457600080fd5b50565b6000813590506101a681610180565b92915050565b6000602082840312156101c2576101c1610171565b5b60006101d084828501610197565b91505092915050565b600073ffffffffffffffffffffffffffffffffffffffff82169050919050565b6000610204826101d9565b9050919050565b610214816101f9565b811461021f57600080fd5b50565b6000813590506102318161020b565b92915050565b6000806000606084860312156102505761024f610171565b5b600061025e86828701610197565b935050602061026f86828701610222565b925050604061028086828701610197565b9150509250925092565b610293816101f9565b82525050565b6102a281610176565b82525050565b60008115159050919050565b6102bd816102a8565b82525050565b60006060820190506102d8600083018661028a565b6102e56020830185610299565b6102f260408301846102b4565b949350505050565b600060408201905061030f600083018561028a565b61031c6020830184610299565b9392505050565b7f4e487b7100000000000000000000000000000000000000000000000000000000600052601160045260246000fd5b600061035d82610176565b915061036883610176565b9250827fffffffffffffffffffffffffffffffffffffffffffffffffffffffffffffffff0382111561039d5761039c610323565b5b828201905092915050565b60006040820190506103bd6000830185610299565b6103ca6020830184610299565b939250505056fea26469706673582212207807fe49717b5e16ed98b28549bf488fb335ec3e08c784d86d356f027365ce4b64736f6c634300080d0033",
        "nonce": "0x24",
        "chainId": "0x7a69"
      },
      "additionalContracts": [],
      "isFixedGasLimit": false
    },
    {
      "hash": "0x7accfb749a8ed213809fbd6a6f972804fa7c353a5f4a11ca21c90fd365c0976b",
      "transactionType": "CALL",
      "contractName": "SimpleNounsAuction",
      "contractAddress": "0x851356ae760d987e095750cceb3bc6014560891c",
      "function": "createAuction(uint256)",
      "arguments": [
        "721"
      ],
      "transaction": {
        "from": "0xf39fd6e51aad88f6f4ce6ab8827279cfffb92266",
        "to": "0x851356ae760d987e095750cceb3bc6014560891c",
        "gas": "0x8037",
        "value": "0x0",
        "input": "0xd5563f3100000000000000000000000000000000000000000000000000000000000002d1",
        "nonce": "0x25",
        "chainId": "0x7a69"
      },
      "additionalContracts": [],
      "isFixedGasLimit": false
    },
    {
      "hash": "0x470373707ef0b70ad96111465aa0ea861c981c46598de678f2da26b9c9b36648",
      "transactionType": "CALL",
      "contractName": "SimpleNounsAuction",
      "contractAddress": "0x851356ae760d987e095750cceb3bc6014560891c",
      "function": "createBid(uint256)",
      "arguments": [
        "721"
      ],
      "transaction": {
        "from": "0xf39fd6e51aad88f6f4ce6ab8827279cfffb92266",
        "to": "0x851356ae760d987e095750cceb3bc6014560891c",
        "gas": "0x8109",
        "value": "0xde0b6b3a7640000",
        "input": "0x659dd2b400000000000000000000000000000000000000000000000000000000000002d1",
        "nonce": "0x26",
        "chainId": "0x7a69"
      },
      "additionalContracts": [],
      "isFixedGasLimit": false
    },
    {
      "hash": "0x9124d6b90e542cd3ba1f63211c5b354fb752bc89ff141b1f20f816765c5b276b",
      "transactionType": "CALL",
      "contractName": "SimpleNounsAuction",
      "contractAddress": "0x851356ae760d987e095750cceb3bc6014560891c",
      "function": "createBid(uint256)",
      "arguments": [
        "721"
      ],
      "transaction": {
        "from": "0xf39fd6e51aad88f6f4ce6ab8827279cfffb92266",
        "to": "0x851356ae760d987e095750cceb3bc6014560891c",
        "gas": "0x8109",
        "value": "0x22b1c8c1227a0000",
        "input": "0x659dd2b400000000000000000000000000000000000000000000000000000000000002d1",
        "nonce": "0x27",
        "chainId": "0x7a69"
      },
      "additionalContracts": [],
      "isFixedGasLimit": false
    },
    {
      "hash": "0xf97bfb1234f6efedcc92a377201dd5e65de38f4c9dc90654cfeeb74c76408433",
      "transactionType": "CALL",
      "contractName": "SimpleNounsAuction",
      "contractAddress": "0x851356ae760d987e095750cceb3bc6014560891c",
      "function": "createBid(uint256)",
      "arguments": [
        "721"
      ],
      "transaction": {
        "from": "0xf39fd6e51aad88f6f4ce6ab8827279cfffb92266",
        "to": "0x851356ae760d987e095750cceb3bc6014560891c",
        "gas": "0x8109",
        "value": "0x3a4965bf58a40000",
        "input": "0x659dd2b400000000000000000000000000000000000000000000000000000000000002d1",
        "nonce": "0x28",
        "chainId": "0x7a69"
      },
      "additionalContracts": [],
      "isFixedGasLimit": false
    },
    {
      "hash": "0x891bf338a9fa5a2e40299bb2a3ef34042af0f02eb67bd822faf896f957449d4c",
      "transactionType": "CALL",
      "contractName": "SimpleNounsAuction",
      "contractAddress": "0x851356ae760d987e095750cceb3bc6014560891c",
      "function": "settleAuction(uint256,address,uint256)",
      "arguments": [
        "721",
        "0xf39Fd6e51aad88F6F4ce6aB8827279cffFb92266",
        "4200000000000000000"
      ],
      "transaction": {
        "from": "0xf39fd6e51aad88f6f4ce6ab8827279cfffb92266",
        "to": "0x851356ae760d987e095750cceb3bc6014560891c",
        "gas": "0x8480",
        "value": "0x0",
        "input": "0x98a473df00000000000000000000000000000000000000000000000000000000000002d1000000000000000000000000f39fd6e51aad88f6f4ce6ab8827279cfffb922660000000000000000000000000000000000000000000000003a4965bf58a40000",
        "nonce": "0x29",
        "chainId": "0x7a69"
      },
      "additionalContracts": [],
      "isFixedGasLimit": false
    }
  ],
  "receipts": [
    {
      "status": "0x1",
      "cumulativeGasUsed": "0x43463",
      "logs": [],
      "logsBloom": "0x00000000000000000000000000000000000000000000000000000000000000000000000000000000000000000000000000000000000000000000000000000000000000000000000000000000000000000000000000000000000000000000000000000000000000000000000000000000000000000000000000000000000000000000000000000000000000000000000000000000000000000000000000000000000000000000000000000000000000000000000000000000000000000000000000000000000000000000000000000000000000000000000000000000000000000000000000000000000000000000000000000000000000000000000000000000",
      "type": "0x2",
      "transactionHash": "0xa92682f5e880d5989f4c3277bcef83400dd3570e2880e75c6e3e9c951126f4f6",
      "transactionIndex": "0x0",
      "blockHash": "0x4bfc5f0d47655086542bab5a1ce5c32453894e2ecc89b7ddedffeb9b0469e636",
      "blockNumber": "0x1a",
      "gasUsed": "0x43463",
      "effectiveGasPrice": "0x22a0694",
      "blobGasPrice": "0x1",
      "from": "0xf39fd6e51aad88f6f4ce6ab8827279cfffb92266",
      "to": null,
      "contractAddress": "0x851356ae760d987e095750cceb3bc6014560891c"
    },
    {
      "status": "0x1",
      "cumulativeGasUsed": "0x5cd4",
      "logs": [
        {
          "address": "0x851356ae760d987e095750cceb3bc6014560891c",
          "topics": [
            "0xd6eddd1118d71820909c1197aa966dbc15ed6f508554252169cc3d5ccac756ca",
            "0x00000000000000000000000000000000000000000000000000000000000002d1"
          ],
          "data": "0x000000000000000000000000000000000000000000000000000000006838c6b700000000000000000000000000000000000000000000000000000000683a1837",
          "blockHash": "0x23c33042a7e9e335ab95f9932034eba15ce1f02daaf5ea5f9f82b438d5c61eaa",
          "blockNumber": "0x1b",
          "blockTimestamp": "0x6838c6b7",
          "transactionHash": "0x7accfb749a8ed213809fbd6a6f972804fa7c353a5f4a11ca21c90fd365c0976b",
          "transactionIndex": "0x0",
          "logIndex": "0x0",
          "removed": false
        }
      ],
      "logsBloom": "0x00000000000000000000000000000000000400000000000000000000000000000000000000000000000000000000000000000000000000000000000000000000000000000000000000000000000000002000000000000010000000000400000000000000000000000000000000000020000000000000000000000000000000000000000000000000000000000000000000000000000000000010000000000800000000000000000000000000000000000000000000000000000000000000000000000000000000000000000000000000000000000000000000000000000000000000000000000000000000000000000000000080000001000000000000000000",
      "type": "0x2",
      "transactionHash": "0x7accfb749a8ed213809fbd6a6f972804fa7c353a5f4a11ca21c90fd365c0976b",
      "transactionIndex": "0x0",
      "blockHash": "0x23c33042a7e9e335ab95f9932034eba15ce1f02daaf5ea5f9f82b438d5c61eaa",
      "blockNumber": "0x1b",
      "gasUsed": "0x5cd4",
      "effectiveGasPrice": "0x1e60b71",
      "blobGasPrice": "0x1",
      "from": "0xf39fd6e51aad88f6f4ce6ab8827279cfffb92266",
      "to": "0x851356ae760d987e095750cceb3bc6014560891c",
      "contractAddress": null
    },
    {
      "status": "0x1",
      "cumulativeGasUsed": "0xba40",
      "logs": [
        {
          "address": "0x851356ae760d987e095750cceb3bc6014560891c",
          "topics": [
            "0x1159164c56f277e6fc99c11731bd380e0347deb969b75523398734c252706ea3",
            "0x00000000000000000000000000000000000000000000000000000000000002d1"
          ],
          "data": "0x000000000000000000000000f39fd6e51aad88f6f4ce6ab8827279cfffb922660000000000000000000000000000000000000000000000000de0b6b3a76400000000000000000000000000000000000000000000000000000000000000000000",
          "blockHash": "0x23c33042a7e9e335ab95f9932034eba15ce1f02daaf5ea5f9f82b438d5c61eaa",
          "blockNumber": "0x1b",
          "blockTimestamp": "0x6838c6b7",
          "transactionHash": "0x470373707ef0b70ad96111465aa0ea861c981c46598de678f2da26b9c9b36648",
          "transactionIndex": "0x1",
          "logIndex": "0x1",
          "removed": false
        }
      ],
      "logsBloom": "0x00000000000000000000000000000000002400000000000000000000000000000000000000000000000000000000000000000000000000000000000000000000000000000000000000000000000000002000000000000010000000000400040000000000000000000000000000000020000000000000000000000000000000000000000000000000000000000000000000000000000000000000000000000000000000000000000000000000000000000000000000000000000000000000000000000000000000000000000000000000000000000000000000000000000000000000000000000000000000000000000000000080000000000008000000000000",
      "type": "0x2",
      "transactionHash": "0x470373707ef0b70ad96111465aa0ea861c981c46598de678f2da26b9c9b36648",
      "transactionIndex": "0x1",
      "blockHash": "0x23c33042a7e9e335ab95f9932034eba15ce1f02daaf5ea5f9f82b438d5c61eaa",
      "blockNumber": "0x1b",
      "gasUsed": "0x5d6c",
      "effectiveGasPrice": "0x1e60b71",
      "blobGasPrice": "0x1",
      "from": "0xf39fd6e51aad88f6f4ce6ab8827279cfffb92266",
      "to": "0x851356ae760d987e095750cceb3bc6014560891c",
      "contractAddress": null
    },
    {
      "status": "0x1",
      "cumulativeGasUsed": "0x117ac",
      "logs": [
        {
          "address": "0x851356ae760d987e095750cceb3bc6014560891c",
          "topics": [
            "0x1159164c56f277e6fc99c11731bd380e0347deb969b75523398734c252706ea3",
            "0x00000000000000000000000000000000000000000000000000000000000002d1"
          ],
          "data": "0x000000000000000000000000f39fd6e51aad88f6f4ce6ab8827279cfffb9226600000000000000000000000000000000000000000000000022b1c8c1227a00000000000000000000000000000000000000000000000000000000000000000000",
          "blockHash": "0x23c33042a7e9e335ab95f9932034eba15ce1f02daaf5ea5f9f82b438d5c61eaa",
          "blockNumber": "0x1b",
          "blockTimestamp": "0x6838c6b7",
          "transactionHash": "0x9124d6b90e542cd3ba1f63211c5b354fb752bc89ff141b1f20f816765c5b276b",
          "transactionIndex": "0x2",
          "logIndex": "0x2",
          "removed": false
        }
      ],
      "logsBloom": "0x00000000000000000000000000000000002400000000000000000000000000000000000000000000000000000000000000000000000000000000000000000000000000000000000000000000000000002000000000000010000000000400040000000000000000000000000000000020000000000000000000000000000000000000000000000000000000000000000000000000000000000000000000000000000000000000000000000000000000000000000000000000000000000000000000000000000000000000000000000000000000000000000000000000000000000000000000000000000000000000000000000080000000000008000000000000",
      "type": "0x2",
      "transactionHash": "0x9124d6b90e542cd3ba1f63211c5b354fb752bc89ff141b1f20f816765c5b276b",
      "transactionIndex": "0x2",
      "blockHash": "0x23c33042a7e9e335ab95f9932034eba15ce1f02daaf5ea5f9f82b438d5c61eaa",
      "blockNumber": "0x1b",
      "gasUsed": "0x5d6c",
      "effectiveGasPrice": "0x1e60b71",
      "blobGasPrice": "0x1",
      "from": "0xf39fd6e51aad88f6f4ce6ab8827279cfffb92266",
      "to": "0x851356ae760d987e095750cceb3bc6014560891c",
      "contractAddress": null
    },
    {
      "status": "0x1",
      "cumulativeGasUsed": "0x17518",
      "logs": [
        {
          "address": "0x851356ae760d987e095750cceb3bc6014560891c",
          "topics": [
            "0x1159164c56f277e6fc99c11731bd380e0347deb969b75523398734c252706ea3",
            "0x00000000000000000000000000000000000000000000000000000000000002d1"
          ],
          "data": "0x000000000000000000000000f39fd6e51aad88f6f4ce6ab8827279cfffb922660000000000000000000000000000000000000000000000003a4965bf58a400000000000000000000000000000000000000000000000000000000000000000000",
          "blockHash": "0x23c33042a7e9e335ab95f9932034eba15ce1f02daaf5ea5f9f82b438d5c61eaa",
          "blockNumber": "0x1b",
          "blockTimestamp": "0x6838c6b7",
          "transactionHash": "0xf97bfb1234f6efedcc92a377201dd5e65de38f4c9dc90654cfeeb74c76408433",
          "transactionIndex": "0x3",
          "logIndex": "0x3",
          "removed": false
        }
      ],
      "logsBloom": "0x00000000000000000000000000000000002400000000000000000000000000000000000000000000000000000000000000000000000000000000000000000000000000000000000000000000000000002000000000000010000000000400040000000000000000000000000000000020000000000000000000000000000000000000000000000000000000000000000000000000000000000000000000000000000000000000000000000000000000000000000000000000000000000000000000000000000000000000000000000000000000000000000000000000000000000000000000000000000000000000000000000080000000000008000000000000",
      "type": "0x2",
      "transactionHash": "0xf97bfb1234f6efedcc92a377201dd5e65de38f4c9dc90654cfeeb74c76408433",
      "transactionIndex": "0x3",
      "blockHash": "0x23c33042a7e9e335ab95f9932034eba15ce1f02daaf5ea5f9f82b438d5c61eaa",
      "blockNumber": "0x1b",
      "gasUsed": "0x5d6c",
      "effectiveGasPrice": "0x1e60b71",
      "blobGasPrice": "0x1",
      "from": "0xf39fd6e51aad88f6f4ce6ab8827279cfffb92266",
      "to": "0x851356ae760d987e095750cceb3bc6014560891c",
      "contractAddress": null
    },
    {
      "status": "0x1",
      "cumulativeGasUsed": "0x1d507",
      "logs": [
        {
          "address": "0x851356ae760d987e095750cceb3bc6014560891c",
          "topics": [
            "0xc9f72b276a388619c6d185d146697036241880c36654b1a3ffdad07c24038d99",
            "0x00000000000000000000000000000000000000000000000000000000000002d1"
          ],
          "data": "0x000000000000000000000000f39fd6e51aad88f6f4ce6ab8827279cfffb922660000000000000000000000000000000000000000000000003a4965bf58a40000",
          "blockHash": "0x23c33042a7e9e335ab95f9932034eba15ce1f02daaf5ea5f9f82b438d5c61eaa",
          "blockNumber": "0x1b",
          "blockTimestamp": "0x6838c6b7",
          "transactionHash": "0x891bf338a9fa5a2e40299bb2a3ef34042af0f02eb67bd822faf896f957449d4c",
          "transactionIndex": "0x4",
          "logIndex": "0x4",
          "removed": false
        }
      ],
      "logsBloom": "0x00000000000000000000000000001000000400000000000000000000000000000000000000000000000000000000000000000000000000000000000000000000000000000000000000000000000000002000000000000010000000000400000000000000000000000000000000000020000000000000000000000000000000000000000000000000000000000000000000000000000000000000000000000010000000000000000000000000000000000000000000000000000000000000000000000000000000000000080000000000000000000000000000000000000000000000000000000000000000000000000000000080000000000000000000000000",
      "type": "0x2",
      "transactionHash": "0x891bf338a9fa5a2e40299bb2a3ef34042af0f02eb67bd822faf896f957449d4c",
      "transactionIndex": "0x4",
      "blockHash": "0x23c33042a7e9e335ab95f9932034eba15ce1f02daaf5ea5f9f82b438d5c61eaa",
      "blockNumber": "0x1b",
      "gasUsed": "0x5fef",
      "effectiveGasPrice": "0x1e60b71",
      "blobGasPrice": "0x1",
      "from": "0xf39fd6e51aad88f6f4ce6ab8827279cfffb92266",
      "to": "0x851356ae760d987e095750cceb3bc6014560891c",
      "contractAddress": null
    }
  ],
  "libraries": [],
  "pending": [],
  "returns": {},
  "timestamp": 1748551351,
  "chain": 31337,
  "commit": null
}