{
  "transactions": [
    {
      "hash": "0xb3813b37c25b18f068a27e3380783b3c5625ec299e20d84ef4a75e984709e593",
      "transactionType": "CREATE",
      "contractName": "SimpleNounsAuction",
      "contractAddress": "0x5fbdb2315678afecb367f032d93f642f64180aa3",
      "function": null,
      "arguments": null,
      "transaction": {
        "from": "0xf39fd6e51aad88f6f4ce6ab8827279cfffb92266",
        "gas": "0x576f5",
        "value": "0x0",
        "input": "0x608060405234801561001057600080fd5b50610407806100206000396000f3fe6080604052600436106100345760003560e01c8063659dd2b41461003957806398a473df14610055578063d5563f311461007e575b600080fd5b610053600480360381019061004e91906101ac565b6100a7565b005b34801561006157600080fd5b5061007c60048036038101906100779190610237565b6100e7565b005b34801561008a57600080fd5b506100a560048036038101906100a091906101ac565b610126565b005b807f1159164c56f277e6fc99c11731bd380e0347deb969b75523398734c252706ea3333460006040516100dc939291906102c3565b60405180910390a250565b827fc9f72b276a388619c6d185d146697036241880c36654b1a3ffdad07c24038d9983836040516101199291906102fa565b60405180910390a2505050565b807fd6eddd1118d71820909c1197aa966dbc15ed6f508554252169cc3d5ccac756ca4262015180426101589190610352565b6040516101669291906103a8565b60405180910390a250565b600080fd5b6000819050919050565b61018981610176565b811461019457600080fd5b50565b6000813590506101a681610180565b92915050565b6000602082840312156101c2576101c1610171565b5b60006101d084828501610197565b91505092915050565b600073ffffffffffffffffffffffffffffffffffffffff82169050919050565b6000610204826101d9565b9050919050565b610214816101f9565b811461021f57600080fd5b50565b6000813590506102318161020b565b92915050565b6000806000606084860312156102505761024f610171565b5b600061025e86828701610197565b935050602061026f86828701610222565b925050604061028086828701610197565b9150509250925092565b610293816101f9565b82525050565b6102a281610176565b82525050565b60008115159050919050565b6102bd816102a8565b82525050565b60006060820190506102d8600083018661028a565b6102e56020830185610299565b6102f260408301846102b4565b949350505050565b600060408201905061030f600083018561028a565b61031c6020830184610299565b9392505050565b7f4e487b7100000000000000000000000000000000000000000000000000000000600052601160045260246000fd5b600061035d82610176565b915061036883610176565b9250827fffffffffffffffffffffffffffffffffffffffffffffffffffffffffffffffff0382111561039d5761039c610323565b5b828201905092915050565b60006040820190506103bd6000830185610299565b6103ca6020830184610299565b939250505056fea26469706673582212207807fe49717b5e16ed98b28549bf488fb335ec3e08c784d86d356f027365ce4b64736f6c634300080d0033",
        "nonce": "0x0",
        "chainId": "0x7a69"
      },
      "additionalContracts": [],
      "isFixedGasLimit": false
    },
    {
      "hash": "0xa5b241526e839f712e9c594ee001eb078eea52700a05d62b3396dd4784109175",
      "transactionType": "CALL",
      "contractName": "SimpleNounsAuction",
      "contractAddress": "0x5fbdb2315678afecb367f032d93f642f64180aa3",
      "function": "createAuction(uint256)",
      "arguments": [
        "721"
      ],
      "transaction": {
        "from": "0xf39fd6e51aad88f6f4ce6ab8827279cfffb92266",
        "to": "0x5fbdb2315678afecb367f032d93f642f64180aa3",
        "gas": "0x8037",
        "value": "0x0",
        "input": "0xd5563f3100000000000000000000000000000000000000000000000000000000000002d1",
        "nonce": "0x1",
        "chainId": "0x7a69"
      },
      "additionalContracts": [],
      "isFixedGasLimit": false
    },
    {
      "hash": "0x51b69fa174b4efa8785090bc39a0c1763ce701012f62629bc5f1b3b55b558ced",
      "transactionType": "CALL",
      "contractName": "SimpleNounsAuction",
      "contractAddress": "0x5fbdb2315678afecb367f032d93f642f64180aa3",
      "function": "createBid(uint256)",
      "arguments": [
        "721"
      ],
      "transaction": {
        "from": "0xf39fd6e51aad88f6f4ce6ab8827279cfffb92266",
        "to": "0x5fbdb2315678afecb367f032d93f642f64180aa3",
        "gas": "0x8109",
        "value": "0xde0b6b3a7640000",
        "input": "0x659dd2b400000000000000000000000000000000000000000000000000000000000002d1",
        "nonce": "0x2",
        "chainId": "0x7a69"
      },
      "additionalContracts": [],
      "isFixedGasLimit": false
    },
    {
      "hash": "0x6a66d0b1fcdba344ac87ad3f3ee34e65802599925c5ca12affc2ef18a12f5656",
      "transactionType": "CALL",
      "contractName": "SimpleNounsAuction",
      "contractAddress": "0x5fbdb2315678afecb367f032d93f642f64180aa3",
      "function": "createBid(uint256)",
      "arguments": [
        "721"
      ],
      "transaction": {
        "from": "0xf39fd6e51aad88f6f4ce6ab8827279cfffb92266",
        "to": "0x5fbdb2315678afecb367f032d93f642f64180aa3",
        "gas": "0x8109",
        "value": "0x22b1c8c1227a0000",
        "input": "0x659dd2b400000000000000000000000000000000000000000000000000000000000002d1",
        "nonce": "0x3",
        "chainId": "0x7a69"
      },
      "additionalContracts": [],
      "isFixedGasLimit": false
    },
    {
      "hash": "0x5490e1127c4ea3cfd20b115ef1796478af2db9377ea08e1f0c86a029e9736a86",
      "transactionType": "CALL",
      "contractName": "SimpleNounsAuction",
      "contractAddress": "0x5fbdb2315678afecb367f032d93f642f64180aa3",
      "function": "createBid(uint256)",
      "arguments": [
        "721"
      ],
      "transaction": {
        "from": "0xf39fd6e51aad88f6f4ce6ab8827279cfffb92266",
        "to": "0x5fbdb2315678afecb367f032d93f642f64180aa3",
        "gas": "0x8109",
        "value": "0x3a4965bf58a40000",
        "input": "0x659dd2b400000000000000000000000000000000000000000000000000000000000002d1",
        "nonce": "0x4",
        "chainId": "0x7a69"
      },
      "additionalContracts": [],
      "isFixedGasLimit": false
    },
    {
      "hash": "0x0819bbfeef5c7881a90ea01d5bed98758aea08211c44ae45d4265d4f5911c029",
      "transactionType": "CALL",
      "contractName": "SimpleNounsAuction",
      "contractAddress": "0x5fbdb2315678afecb367f032d93f642f64180aa3",
      "function": "settleAuction(uint256,address,uint256)",
      "arguments": [
        "721",
        "0xf39Fd6e51aad88F6F4ce6aB8827279cffFb92266",
        "4200000000000000000"
      ],
      "transaction": {
        "from": "0xf39fd6e51aad88f6f4ce6ab8827279cfffb92266",
        "to": "0x5fbdb2315678afecb367f032d93f642f64180aa3",
        "gas": "0x8480",
        "value": "0x0",
        "input": "0x98a473df00000000000000000000000000000000000000000000000000000000000002d1000000000000000000000000f39fd6e51aad88f6f4ce6ab8827279cfffb922660000000000000000000000000000000000000000000000003a4965bf58a40000",
        "nonce": "0x5",
        "chainId": "0x7a69"
      },
      "additionalContracts": [],
      "isFixedGasLimit": false
    }
  ],
  "receipts": [
    {
      "status": "0x1",
      "cumulativeGasUsed": "0x43463",
      "logs": [],
      "logsBloom": "0x00000000000000000000000000000000000000000000000000000000000000000000000000000000000000000000000000000000000000000000000000000000000000000000000000000000000000000000000000000000000000000000000000000000000000000000000000000000000000000000000000000000000000000000000000000000000000000000000000000000000000000000000000000000000000000000000000000000000000000000000000000000000000000000000000000000000000000000000000000000000000000000000000000000000000000000000000000000000000000000000000000000000000000000000000000000",
      "type": "0x2",
      "transactionHash": "0xb3813b37c25b18f068a27e3380783b3c5625ec299e20d84ef4a75e984709e593",
      "transactionIndex": "0x0",
      "blockHash": "0xb9697cf1291a60b668b4184db8a56584b4b86b6b7d0c2ac9f4d446eea8d690c0",
      "blockNumber": "0x1",
      "gasUsed": "0x43463",
      "effectiveGasPrice": "0x3b9aca01",
      "blobGasPrice": "0x1",
      "from": "0xf39fd6e51aad88f6f4ce6ab8827279cfffb92266",
      "to": null,
      "contractAddress": "0x5fbdb2315678afecb367f032d93f642f64180aa3"
    },
    {
      "status": "0x1",
      "cumulativeGasUsed": "0x5cd4",
      "logs": [
        {
          "address": "0x5fbdb2315678afecb367f032d93f642f64180aa3",
          "topics": [
            "0xd6eddd1118d71820909c1197aa966dbc15ed6f508554252169cc3d5ccac756ca",
            "0x00000000000000000000000000000000000000000000000000000000000002d1"
          ],
          "data": "0x000000000000000000000000000000000000000000000000000000006832381b000000000000000000000000000000000000000000000000000000006833899b",
          "blockHash": "0xa5d366a3a0b8ad2ab00cf37c3b4ec490f236a2eca32834029a554d899ae98dcd",
          "blockNumber": "0x2",
          "blockTimestamp": "0x6832381b",
          "transactionHash": "0xa5b241526e839f712e9c594ee001eb078eea52700a05d62b3396dd4784109175",
          "transactionIndex": "0x0",
          "logIndex": "0x0",
          "removed": false
        }
      ],
      "logsBloom": "0x00000000000000000000000000000000000000000000000000000000000000000000000000000000000000000000000000000000000000000000000000000000000000000000000000000000000000002000000000000000000000000400000000000040000000000000000000000000000000000000000000000000000000000000000000000000000000000000000000000000000000000010000200000800000000000000000000000000000000000000000000000000000000000000000000000040000000000000000000000000000000000000000000000000000000000000000000000000000000000000000000000080000001000000000000000000",
      "type": "0x2",
      "transactionHash": "0xa5b241526e839f712e9c594ee001eb078eea52700a05d62b3396dd4784109175",
      "transactionIndex": "0x0",
      "blockHash": "0xa5d366a3a0b8ad2ab00cf37c3b4ec490f236a2eca32834029a554d899ae98dcd",
      "blockNumber": "0x2",
      "gasUsed": "0x5cd4",
      "effectiveGasPrice": "0x344a7aa5",
      "blobGasPrice": "0x1",
      "from": "0xf39fd6e51aad88f6f4ce6ab8827279cfffb92266",
      "to": "0x5fbdb2315678afecb367f032d93f642f64180aa3",
      "contractAddress": null
    },
    {
      "status": "0x1",
      "cumulativeGasUsed": "0x5d6c",
      "logs": [
        {
          "address": "0x5fbdb2315678afecb367f032d93f642f64180aa3",
          "topics": [
            "0x1159164c56f277e6fc99c11731bd380e0347deb969b75523398734c252706ea3",
            "0x00000000000000000000000000000000000000000000000000000000000002d1"
          ],
          "data": "0x000000000000000000000000f39fd6e51aad88f6f4ce6ab8827279cfffb922660000000000000000000000000000000000000000000000000de0b6b3a76400000000000000000000000000000000000000000000000000000000000000000000",
          "blockHash": "0xb11018610dffe1adc4a6c4c7a9cc5cd81a7b5ce585adfda281db185140ac3312",
          "blockNumber": "0x3",
          "blockTimestamp": "0x6832381b",
          "transactionHash": "0x51b69fa174b4efa8785090bc39a0c1763ce701012f62629bc5f1b3b55b558ced",
          "transactionIndex": "0x0",
          "logIndex": "0x0",
          "removed": false
        }
      ],
      "logsBloom": "0x00000000000000000000000000000000002000000000000000000000000000000000000000000000000000000000000000000000000000000000000000000000000000000000000000000000000000002000000000000000000000000400040000000040000000000000000000000000000000000000000000000000000000000000000000000000000000000000000000000000000000000000000200000000000000000000000000000000000000000000000000000000000000000000000000000040000000000000000000000000000000000000000000000000000000000000000000000000000000000000000000000080000000000008000000000000",
      "type": "0x2",
      "transactionHash": "0x51b69fa174b4efa8785090bc39a0c1763ce701012f62629bc5f1b3b55b558ced",
      "transactionIndex": "0x0",
      "blockHash": "0xb11018610dffe1adc4a6c4c7a9cc5cd81a7b5ce585adfda281db185140ac3312",
      "blockNumber": "0x3",
      "gasUsed": "0x5d6c",
      "effectiveGasPrice": "0x2dc3d1f7",
      "blobGasPrice": "0x1",
      "from": "0xf39fd6e51aad88f6f4ce6ab8827279cfffb92266",
      "to": "0x5fbdb2315678afecb367f032d93f642f64180aa3",
      "contractAddress": null
    },
    {
      "status": "0x1",
      "cumulativeGasUsed": "0x5d6c",
      "logs": [
        {
          "address": "0x5fbdb2315678afecb367f032d93f642f64180aa3",
          "topics": [
            "0x1159164c56f277e6fc99c11731bd380e0347deb969b75523398734c252706ea3",
            "0x00000000000000000000000000000000000000000000000000000000000002d1"
          ],
          "data": "0x000000000000000000000000f39fd6e51aad88f6f4ce6ab8827279cfffb9226600000000000000000000000000000000000000000000000022b1c8c1227a00000000000000000000000000000000000000000000000000000000000000000000",
          "blockHash": "0x0bb0f5289ab0692ad56a38b67fd4e67f68d337fe78c3ea31537096e1175efaa4",
          "blockNumber": "0x4",
          "blockTimestamp": "0x6832381b",
          "transactionHash": "0x6a66d0b1fcdba344ac87ad3f3ee34e65802599925c5ca12affc2ef18a12f5656",
          "transactionIndex": "0x0",
          "logIndex": "0x0",
          "removed": false
        }
      ],
      "logsBloom": "0x00000000000000000000000000000000002000000000000000000000000000000000000000000000000000000000000000000000000000000000000000000000000000000000000000000000000000002000000000000000000000000400040000000040000000000000000000000000000000000000000000000000000000000000000000000000000000000000000000000000000000000000000200000000000000000000000000000000000000000000000000000000000000000000000000000040000000000000000000000000000000000000000000000000000000000000000000000000000000000000000000000080000000000008000000000000",
      "type": "0x2",
      "transactionHash": "0x6a66d0b1fcdba344ac87ad3f3ee34e65802599925c5ca12affc2ef18a12f5656",
      "transactionIndex": "0x0",
      "blockHash": "0x0bb0f5289ab0692ad56a38b67fd4e67f68d337fe78c3ea31537096e1175efaa4",
      "blockNumber": "0x4",
      "gasUsed": "0x5d6c",
      "effectiveGasPrice": "0x280dad79",
      "blobGasPrice": "0x1",
      "from": "0xf39fd6e51aad88f6f4ce6ab8827279cfffb92266",
      "to": "0x5fbdb2315678afecb367f032d93f642f64180aa3",
      "contractAddress": null
    },
    {
      "status": "0x1",
      "cumulativeGasUsed": "0x5d6c",
      "logs": [
        {
          "address": "0x5fbdb2315678afecb367f032d93f642f64180aa3",
          "topics": [
            "0x1159164c56f277e6fc99c11731bd380e0347deb969b75523398734c252706ea3",
            "0x00000000000000000000000000000000000000000000000000000000000002d1"
          ],
          "data": "0x000000000000000000000000f39fd6e51aad88f6f4ce6ab8827279cfffb922660000000000000000000000000000000000000000000000003a4965bf58a400000000000000000000000000000000000000000000000000000000000000000000",
          "blockHash": "0x0d489fd988f6563caa41e70068dc1f3de4bea02d3bea6c3e8b3183549f4333d3",
          "blockNumber": "0x5",
          "blockTimestamp": "0x6832381b",
          "transactionHash": "0x5490e1127c4ea3cfd20b115ef1796478af2db9377ea08e1f0c86a029e9736a86",
          "transactionIndex": "0x0",
          "logIndex": "0x0",
          "removed": false
        }
      ],
      "logsBloom": "0x00000000000000000000000000000000002000000000000000000000000000000000000000000000000000000000000000000000000000000000000000000000000000000000000000000000000000002000000000000000000000000400040000000040000000000000000000000000000000000000000000000000000000000000000000000000000000000000000000000000000000000000000200000000000000000000000000000000000000000000000000000000000000000000000000000040000000000000000000000000000000000000000000000000000000000000000000000000000000000000000000000080000000000008000000000000",
      "type": "0x2",
      "transactionHash": "0x5490e1127c4ea3cfd20b115ef1796478af2db9377ea08e1f0c86a029e9736a86",
      "transactionIndex": "0x0",
      "blockHash": "0x0d489fd988f6563caa41e70068dc1f3de4bea02d3bea6c3e8b3183549f4333d3",
      "blockNumber": "0x5",
      "gasUsed": "0x5d6c",
      "effectiveGasPrice": "0x230e02f1",
      "blobGasPrice": "0x1",
      "from": "0xf39fd6e51aad88f6f4ce6ab8827279cfffb92266",
      "to": "0x5fbdb2315678afecb367f032d93f642f64180aa3",
      "contractAddress": null
    },
    {
      "status": "0x1",
      "cumulativeGasUsed": "0xbd5b",
      "logs": [
        {
          "address": "0x5fbdb2315678afecb367f032d93f642f64180aa3",
          "topics": [
            "0xc9f72b276a388619c6d185d146697036241880c36654b1a3ffdad07c24038d99",
            "0x00000000000000000000000000000000000000000000000000000000000002d1"
          ],
          "data": "0x000000000000000000000000f39fd6e51aad88f6f4ce6ab8827279cfffb922660000000000000000000000000000000000000000000000003a4965bf58a40000",
          "blockHash": "0x0d489fd988f6563caa41e70068dc1f3de4bea02d3bea6c3e8b3183549f4333d3",
          "blockNumber": "0x5",
          "blockTimestamp": "0x6832381b",
          "transactionHash": "0x0819bbfeef5c7881a90ea01d5bed98758aea08211c44ae45d4265d4f5911c029",
          "transactionIndex": "0x1",
          "logIndex": "0x1",
          "removed": false
        }
      ],
      "logsBloom": "0x00000000000000000000000000001000000000000000000000000000000000000000000000000000000000000000000000000000000000000000000000000000000000000000000000000000000000002000000000000000000000000400000000000040000000000000000000000000000000000000000000000000000000000000000000000000000000000000000000000000000000000000000200000010000000000000000000000000000000000000000000000000000000000000000000000040000000000000080000000000000000000000000000000000000000000000000000000000000000000000000000000080000000000000000000000000",
      "type": "0x2",
      "transactionHash": "0x0819bbfeef5c7881a90ea01d5bed98758aea08211c44ae45d4265d4f5911c029",
      "transactionIndex": "0x1",
      "blockHash": "0x0d489fd988f6563caa41e70068dc1f3de4bea02d3bea6c3e8b3183549f4333d3",
      "blockNumber": "0x5",
      "gasUsed": "0x5fef",
      "effectiveGasPrice": "0x230e02f1",
      "blobGasPrice": "0x1",
      "from": "0xf39fd6e51aad88f6f4ce6ab8827279cfffb92266",
      "to": "0x5fbdb2315678afecb367f032d93f642f64180aa3",
      "contractAddress": null
    }
  ],
  "libraries": [],
  "pending": [],
  "returns": {},
  "timestamp": 1748121627,
  "chain": 31337,
  "commit": null
}