{
  "transactions": [
    {
      "hash": "0xc135fcd0c812cbb0c47e1dcea4a724850dab4bf9e6b09244d27aab8dcaaaf52d",
      "transactionType": "CREATE",
      "contractName": "SimpleNounsAuction",
      "contractAddress": "0xa51c1fc2f0d1a1b8494ed1fe312d7c3a78ed91c0",
      "function": null,
      "arguments": null,
      "transaction": {
        "from": "0xf39fd6e51aad88f6f4ce6ab8827279cfffb92266",
        "gas": "0x576f5",
        "value": "0x0",
        "input": "0x608060405234801561001057600080fd5b50610407806100206000396000f3fe6080604052600436106100345760003560e01c8063659dd2b41461003957806398a473df14610055578063d5563f311461007e575b600080fd5b610053600480360381019061004e91906101ac565b6100a7565b005b34801561006157600080fd5b5061007c60048036038101906100779190610237565b6100e7565b005b34801561008a57600080fd5b506100a560048036038101906100a091906101ac565b610126565b005b807f1159164c56f277e6fc99c11731bd380e0347deb969b75523398734c252706ea3333460006040516100dc939291906102c3565b60405180910390a250565b827fc9f72b276a388619c6d185d146697036241880c36654b1a3ffdad07c24038d9983836040516101199291906102fa565b60405180910390a2505050565b807fd6eddd1118d71820909c1197aa966dbc15ed6f508554252169cc3d5ccac756ca4262015180426101589190610352565b6040516101669291906103a8565b60405180910390a250565b600080fd5b6000819050919050565b61018981610176565b811461019457600080fd5b50565b6000813590506101a681610180565b92915050565b6000602082840312156101c2576101c1610171565b5b60006101d084828501610197565b91505092915050565b600073ffffffffffffffffffffffffffffffffffffffff82169050919050565b6000610204826101d9565b9050919050565b610214816101f9565b811461021f57600080fd5b50565b6000813590506102318161020b565b92915050565b6000806000606084860312156102505761024f610171565b5b600061025e86828701610197565b935050602061026f86828701610222565b925050604061028086828701610197565b9150509250925092565b610293816101f9565b82525050565b6102a281610176565b82525050565b60008115159050919050565b6102bd816102a8565b82525050565b60006060820190506102d8600083018661028a565b6102e56020830185610299565b6102f260408301846102b4565b949350505050565b600060408201905061030f600083018561028a565b61031c6020830184610299565b9392505050565b7f4e487b7100000000000000000000000000000000000000000000000000000000600052601160045260246000fd5b600061035d82610176565b915061036883610176565b9250827fffffffffffffffffffffffffffffffffffffffffffffffffffffffffffffffff0382111561039d5761039c610323565b5b828201905092915050565b60006040820190506103bd6000830185610299565b6103ca6020830184610299565b939250505056fea26469706673582212207807fe49717b5e16ed98b28549bf488fb335ec3e08c784d86d356f027365ce4b64736f6c634300080d0033",
        "nonce": "0xc",
        "chainId": "0x7a69"
      },
      "additionalContracts": [],
      "isFixedGasLimit": false
    },
    {
      "hash": "0x68ac56f835bd3715870e611f1303a80ebc9f382991beb0a72b5787525bc9654c",
      "transactionType": "CALL",
      "contractName": "SimpleNounsAuction",
      "contractAddress": "0xa51c1fc2f0d1a1b8494ed1fe312d7c3a78ed91c0",
      "function": "createAuction(uint256)",
      "arguments": [
        "721"
      ],
      "transaction": {
        "from": "0xf39fd6e51aad88f6f4ce6ab8827279cfffb92266",
        "to": "0xa51c1fc2f0d1a1b8494ed1fe312d7c3a78ed91c0",
        "gas": "0x8037",
        "value": "0x0",
        "input": "0xd5563f3100000000000000000000000000000000000000000000000000000000000002d1",
        "nonce": "0xd",
        "chainId": "0x7a69"
      },
      "additionalContracts": [],
      "isFixedGasLimit": false
    },
    {
      "hash": "0x1f6952b98099b24d8110f7707f219e201acc4e214ef317a5d0e0ea954d07aced",
      "transactionType": "CALL",
      "contractName": "SimpleNounsAuction",
      "contractAddress": "0xa51c1fc2f0d1a1b8494ed1fe312d7c3a78ed91c0",
      "function": "createBid(uint256)",
      "arguments": [
        "721"
      ],
      "transaction": {
        "from": "0xf39fd6e51aad88f6f4ce6ab8827279cfffb92266",
        "to": "0xa51c1fc2f0d1a1b8494ed1fe312d7c3a78ed91c0",
        "gas": "0x8109",
        "value": "0xde0b6b3a7640000",
        "input": "0x659dd2b400000000000000000000000000000000000000000000000000000000000002d1",
        "nonce": "0xe",
        "chainId": "0x7a69"
      },
      "additionalContracts": [],
      "isFixedGasLimit": false
    },
    {
      "hash": "0xaf27c39570f995850661dc4ad22dd5b3b78c3fd91e2e01e5c736d45696b47583",
      "transactionType": "CALL",
      "contractName": "SimpleNounsAuction",
      "contractAddress": "0xa51c1fc2f0d1a1b8494ed1fe312d7c3a78ed91c0",
      "function": "createBid(uint256)",
      "arguments": [
        "721"
      ],
      "transaction": {
        "from": "0xf39fd6e51aad88f6f4ce6ab8827279cfffb92266",
        "to": "0xa51c1fc2f0d1a1b8494ed1fe312d7c3a78ed91c0",
        "gas": "0x8109",
        "value": "0x22b1c8c1227a0000",
        "input": "0x659dd2b400000000000000000000000000000000000000000000000000000000000002d1",
        "nonce": "0xf",
        "chainId": "0x7a69"
      },
      "additionalContracts": [],
      "isFixedGasLimit": false
    },
    {
      "hash": "0x8acddcdf347f1db7202399014d76f04acd74e4b2fd538543443e7f3303c8860e",
      "transactionType": "CALL",
      "contractName": "SimpleNounsAuction",
      "contractAddress": "0xa51c1fc2f0d1a1b8494ed1fe312d7c3a78ed91c0",
      "function": "createBid(uint256)",
      "arguments": [
        "721"
      ],
      "transaction": {
        "from": "0xf39fd6e51aad88f6f4ce6ab8827279cfffb92266",
        "to": "0xa51c1fc2f0d1a1b8494ed1fe312d7c3a78ed91c0",
        "gas": "0x8109",
        "value": "0x3a4965bf58a40000",
        "input": "0x659dd2b400000000000000000000000000000000000000000000000000000000000002d1",
        "nonce": "0x10",
        "chainId": "0x7a69"
      },
      "additionalContracts": [],
      "isFixedGasLimit": false
    },
    {
      "hash": "0xd683c4e788ec80df8343461261fe4ade0164cc61ad9eae47461744f478a5684c",
      "transactionType": "CALL",
      "contractName": "SimpleNounsAuction",
      "contractAddress": "0xa51c1fc2f0d1a1b8494ed1fe312d7c3a78ed91c0",
      "function": "settleAuction(uint256,address,uint256)",
      "arguments": [
        "721",
        "0xf39Fd6e51aad88F6F4ce6aB8827279cffFb92266",
        "4200000000000000000"
      ],
      "transaction": {
        "from": "0xf39fd6e51aad88f6f4ce6ab8827279cfffb92266",
        "to": "0xa51c1fc2f0d1a1b8494ed1fe312d7c3a78ed91c0",
        "gas": "0x8480",
        "value": "0x0",
        "input": "0x98a473df00000000000000000000000000000000000000000000000000000000000002d1000000000000000000000000f39fd6e51aad88f6f4ce6ab8827279cfffb922660000000000000000000000000000000000000000000000003a4965bf58a40000",
        "nonce": "0x11",
        "chainId": "0x7a69"
      },
      "additionalContracts": [],
      "isFixedGasLimit": false
    }
  ],
  "receipts": [
    {
      "status": "0x1",
      "cumulativeGasUsed": "0x43463",
      "logs": [],
      "logsBloom": "0x00000000000000000000000000000000000000000000000000000000000000000000000000000000000000000000000000000000000000000000000000000000000000000000000000000000000000000000000000000000000000000000000000000000000000000000000000000000000000000000000000000000000000000000000000000000000000000000000000000000000000000000000000000000000000000000000000000000000000000000000000000000000000000000000000000000000000000000000000000000000000000000000000000000000000000000000000000000000000000000000000000000000000000000000000000000",
      "type": "0x2",
      "transactionHash": "0xc135fcd0c812cbb0c47e1dcea4a724850dab4bf9e6b09244d27aab8dcaaaf52d",
      "transactionIndex": "0x0",
      "blockHash": "0xf8ddb43e27b1a3149b876d956d7b4548f90e2df41163e3383c7624b3eab0fc99",
      "blockNumber": "0x8",
      "gasUsed": "0x43463",
      "effectiveGasPrice": "0x179557b5",
      "blobGasPrice": "0x1",
      "from": "0xf39fd6e51aad88f6f4ce6ab8827279cfffb92266",
      "to": null,
      "contractAddress": "0xa51c1fc2f0d1a1b8494ed1fe312d7c3a78ed91c0"
    },
    {
      "status": "0x1",
      "cumulativeGasUsed": "0x5cd4",
      "logs": [
        {
          "address": "0xa51c1fc2f0d1a1b8494ed1fe312d7c3a78ed91c0",
          "topics": [
            "0xd6eddd1118d71820909c1197aa966dbc15ed6f508554252169cc3d5ccac756ca",
            "0x00000000000000000000000000000000000000000000000000000000000002d1"
          ],
          "data": "0x00000000000000000000000000000000000000000000000000000000683238bb0000000000000000000000000000000000000000000000000000000068338a3b",
          "blockHash": "0x876a64cc6d52946a8f618530ac64d23ca6973cd2aa40595b5b95514e594378fc",
          "blockNumber": "0x9",
          "blockTimestamp": "0x683238bb",
          "transactionHash": "0x68ac56f835bd3715870e611f1303a80ebc9f382991beb0a72b5787525bc9654c",
          "transactionIndex": "0x0",
          "logIndex": "0x0",
          "removed": false
        }
      ],
      "logsBloom": "0x00000000000000000000000000000000000000000000000000000000000000000000000000000000000000000000000000000000000000000000000000000000000000000000000000000000000000002000000000000000000000000400000000000000000000000000000000000000000000000000000000000000000000000000000000000000000000000000000000000000000400000010000000000800000000000000000000000000000000000000000000000000000000000000000000000000000000000000000000000000000000000000000000000000000000000000000000000000000000000002000000000080000001000000400000000000",
      "type": "0x2",
      "transactionHash": "0x68ac56f835bd3715870e611f1303a80ebc9f382991beb0a72b5787525bc9654c",
      "transactionIndex": "0x0",
      "blockHash": "0x876a64cc6d52946a8f618530ac64d23ca6973cd2aa40595b5b95514e594378fc",
      "blockNumber": "0x9",
      "gasUsed": "0x5cd4",
      "effectiveGasPrice": "0x14b089cd",
      "blobGasPrice": "0x1",
      "from": "0xf39fd6e51aad88f6f4ce6ab8827279cfffb92266",
      "to": "0xa51c1fc2f0d1a1b8494ed1fe312d7c3a78ed91c0",
      "contractAddress": null
    },
    {
      "status": "0x1",
      "cumulativeGasUsed": "0x5d6c",
      "logs": [
        {
          "address": "0xa51c1fc2f0d1a1b8494ed1fe312d7c3a78ed91c0",
          "topics": [
            "0x1159164c56f277e6fc99c11731bd380e0347deb969b75523398734c252706ea3",
            "0x00000000000000000000000000000000000000000000000000000000000002d1"
          ],
          "data": "0x000000000000000000000000f39fd6e51aad88f6f4ce6ab8827279cfffb922660000000000000000000000000000000000000000000000000de0b6b3a76400000000000000000000000000000000000000000000000000000000000000000000",
          "blockHash": "0xf7396ffbf077c264c0cf846a8d0c71c48e132b8a786433b1dc94f69668c1bdcf",
          "blockNumber": "0xa",
          "blockTimestamp": "0x683238bb",
          "transactionHash": "0x1f6952b98099b24d8110f7707f219e201acc4e214ef317a5d0e0ea954d07aced",
          "transactionIndex": "0x0",
          "logIndex": "0x0",
          "removed": false
        }
      ],
      "logsBloom": "0x00000000000000000000000000000000002000000000000000000000000000000000000000000000000000000000000000000000000000000000000000000000000000000000000000000000000000002000000000000000000000000400040000000000000000000000000000000000000000000000000000000000000000000000000000000000000000000000000000000000000400000000000000000000000000000000000000000000000000000000000000000000000000000000000000000000000000000000000000000000000000000000000000000000000000000000000000000000000000000002000000000080000000000008400000000000",
      "type": "0x2",
      "transactionHash": "0x1f6952b98099b24d8110f7707f219e201acc4e214ef317a5d0e0ea954d07aced",
      "transactionIndex": "0x0",
      "blockHash": "0xf7396ffbf077c264c0cf846a8d0c71c48e132b8a786433b1dc94f69668c1bdcf",
      "blockNumber": "0xa",
      "gasUsed": "0x5d6c",
      "effectiveGasPrice": "0x121b8518",
      "blobGasPrice": "0x1",
      "from": "0xf39fd6e51aad88f6f4ce6ab8827279cfffb92266",
      "to": "0xa51c1fc2f0d1a1b8494ed1fe312d7c3a78ed91c0",
      "contractAddress": null
    },
    {
      "status": "0x1",
      "cumulativeGasUsed": "0x5d6c",
      "logs": [
        {
          "address": "0xa51c1fc2f0d1a1b8494ed1fe312d7c3a78ed91c0",
          "topics": [
            "0x1159164c56f277e6fc99c11731bd380e0347deb969b75523398734c252706ea3",
            "0x00000000000000000000000000000000000000000000000000000000000002d1"
          ],
          "data": "0x000000000000000000000000f39fd6e51aad88f6f4ce6ab8827279cfffb9226600000000000000000000000000000000000000000000000022b1c8c1227a00000000000000000000000000000000000000000000000000000000000000000000",
          "blockHash": "0x08bc4a955b8c2e53a59b6944091d9474fee628060c665e6f4db0d52fc72d1b96",
          "blockNumber": "0xb",
          "blockTimestamp": "0x683238bb",
          "transactionHash": "0xaf27c39570f995850661dc4ad22dd5b3b78c3fd91e2e01e5c736d45696b47583",
          "transactionIndex": "0x0",
          "logIndex": "0x0",
          "removed": false
        }
      ],
      "logsBloom": "0x00000000000000000000000000000000002000000000000000000000000000000000000000000000000000000000000000000000000000000000000000000000000000000000000000000000000000002000000000000000000000000400040000000000000000000000000000000000000000000000000000000000000000000000000000000000000000000000000000000000000400000000000000000000000000000000000000000000000000000000000000000000000000000000000000000000000000000000000000000000000000000000000000000000000000000000000000000000000000000002000000000080000000000008400000000000",
      "type": "0x2",
      "transactionHash": "0xaf27c39570f995850661dc4ad22dd5b3b78c3fd91e2e01e5c736d45696b47583",
      "transactionIndex": "0x0",
      "blockHash": "0x08bc4a955b8c2e53a59b6944091d9474fee628060c665e6f4db0d52fc72d1b96",
      "blockNumber": "0xb",
      "gasUsed": "0x5d6c",
      "effectiveGasPrice": "0xfd900f8",
      "blobGasPrice": "0x1",
      "from": "0xf39fd6e51aad88f6f4ce6ab8827279cfffb92266",
      "to": "0xa51c1fc2f0d1a1b8494ed1fe312d7c3a78ed91c0",
      "contractAddress": null
    },
    {
      "status": "0x1",
      "cumulativeGasUsed": "0x5d6c",
      "logs": [
        {
          "address": "0xa51c1fc2f0d1a1b8494ed1fe312d7c3a78ed91c0",
          "topics": [
            "0x1159164c56f277e6fc99c11731bd380e0347deb969b75523398734c252706ea3",
            "0x00000000000000000000000000000000000000000000000000000000000002d1"
          ],
          "data": "0x000000000000000000000000f39fd6e51aad88f6f4ce6ab8827279cfffb922660000000000000000000000000000000000000000000000003a4965bf58a400000000000000000000000000000000000000000000000000000000000000000000",
          "blockHash": "0x415e632787768c82ce2255909dc0086ba9721405535b1fe5e12cce01aead7b4e",
          "blockNumber": "0xc",
          "blockTimestamp": "0x683238bb",
          "transactionHash": "0x8acddcdf347f1db7202399014d76f04acd74e4b2fd538543443e7f3303c8860e",
          "transactionIndex": "0x0",
          "logIndex": "0x0",
          "removed": false
        }
      ],
      "logsBloom": "0x00000000000000000000000000000000002000000000000000000000000000000000000000000000000000000000000000000000000000000000000000000000000000000000000000000000000000002000000000000000000000000400040000000000000000000000000000000000000000000000000000000000000000000000000000000000000000000000000000000000000400000000000000000000000000000000000000000000000000000000000000000000000000000000000000000000000000000000000000000000000000000000000000000000000000000000000000000000000000000002000000000080000000000008400000000000",
      "type": "0x2",
      "transactionHash": "0x8acddcdf347f1db7202399014d76f04acd74e4b2fd538543443e7f3303c8860e",
      "transactionIndex": "0x0",
      "blockHash": "0x415e632787768c82ce2255909dc0086ba9721405535b1fe5e12cce01aead7b4e",
      "blockNumber": "0xc",
      "gasUsed": "0x5d6c",
      "effectiveGasPrice": "0xddeafd7",
      "blobGasPrice": "0x1",
      "from": "0xf39fd6e51aad88f6f4ce6ab8827279cfffb92266",
      "to": "0xa51c1fc2f0d1a1b8494ed1fe312d7c3a78ed91c0",
      "contractAddress": null
    },
    {
      "status": "0x1",
      "cumulativeGasUsed": "0x5fef",
      "logs": [
        {
          "address": "0xa51c1fc2f0d1a1b8494ed1fe312d7c3a78ed91c0",
          "topics": [
            "0xc9f72b276a388619c6d185d146697036241880c36654b1a3ffdad07c24038d99",
            "0x00000000000000000000000000000000000000000000000000000000000002d1"
          ],
          "data": "0x000000000000000000000000f39fd6e51aad88f6f4ce6ab8827279cfffb922660000000000000000000000000000000000000000000000003a4965bf58a40000",
          "blockHash": "0x52ee0c2e1ae8550d30d15e604da9ec3f94420a0bd2048d063327299b93b7c025",
          "blockNumber": "0xd",
          "blockTimestamp": "0x683238bb",
          "transactionHash": "0xd683c4e788ec80df8343461261fe4ade0164cc61ad9eae47461744f478a5684c",
          "transactionIndex": "0x0",
          "logIndex": "0x0",
          "removed": false
        }
      ],
      "logsBloom": "0x00000000000000000000000000001000000000000000000000000000000000000000000000000000000000000000000000000000000000000000000000000000000000000000000000000000000000002000000000000000000000000400000000000000000000000000000000000000000000000000000000000000000000000000000000000000000000000000000000000000000400000000000000000010000000000000000000000000000000000000000000000000000000000000000000000000000000000000080000000000000000000000000000000000000000000000000000000000000000000002000000000080000000000000400000000000",
      "type": "0x2",
      "transactionHash": "0xd683c4e788ec80df8343461261fe4ade0164cc61ad9eae47461744f478a5684c",
      "transactionIndex": "0x0",
      "blockHash": "0x52ee0c2e1ae8550d30d15e604da9ec3f94420a0bd2048d063327299b93b7c025",
      "blockNumber": "0xd",
      "gasUsed": "0x5fef",
      "effectiveGasPrice": "0xc238f05",
      "blobGasPrice": "0x1",
      "from": "0xf39fd6e51aad88f6f4ce6ab8827279cfffb92266",
      "to": "0xa51c1fc2f0d1a1b8494ed1fe312d7c3a78ed91c0",
      "contractAddress": null
    }
  ],
  "libraries": [],
  "pending": [],
  "returns": {},
  "timestamp": 1748121787,
  "chain": 31337,
  "commit": null
}